:100000000C94E8000C9410010C9410010C94100155
:100010000C9410010C9410010C9410010C9410011C
:100020000C9410010C9410010C9410010C9410010C
:100030000C9410010C9410010C9410010C941001FC
:100040000C9417050C9410010C946B030C9445034D
:100050000C9410010C9410010C9410010C941001DC
:100060000C9410010C9410010000000024002700E3
:100070002A000000000023002600290004040404D4
:100080000404040402020202020203030303030342
:10009000010204081020408001020408102001021F
:1000A00004081020000000080002010000030407FB
:1000B000000000000000000050726F7465637469F6
:1000C0006E672053746F726167652E2E00456E61F6
:1000D000626C696E672057726974652D50726F7417
:1000E000656374696F6E2E2E00040103A00C053445
:1000F0000300FE06000000000700000000090035B4
:1001000034540CD2002D000D544847420E30333386
:10011000380F000000001000000000113400000043
:1001200012000000001300000000486F6C64206E95
:10013000657720746167206F7665722072656164EF
:1001400065722E2E00FC5A836D97CD157D09B44241
:100150000923C9F93202FB11A8E821F1644E8BCCC6
:10016000D16F3E87E8BB9B39612619B9F12015662E
:10017000ACC9311AA28D8024D4078E11FE8D728EE7
:10018000D1179EACAB33640618798EE1000573A7D6
:100190006597E2E95A8C62FC111F43B37B08832AFE
:1001A0009420FDF8B269B828575A6D7230203A2071
:1001B000003101570134013E0146014E015D0165E8
:1001C000016F0100000000250028002B0000400AFC
:1001D00011241FBECFEFD4E0DEBFCDBF11E0A0E001
:1001E000B1E0ECEAFBE102C005900D92AC37B1073B
:1001F000D9F722E0ACE7B1E001C01D92A034B2070C
:10020000E1F710E0C8EED0E004C02197FE010E94A3
:10021000C90DC73ED107C9F70E947E0A0C94D40DC0
:100220000C940000CF92DF92EF92FF920F931F93F6
:10023000CF93DF936C017A018B01C0E0D0E0CE1543
:10024000DF0589F0D8016D918D01D601ED91FC910A
:100250000190F081E02DC6010995892B11F47E01F2
:1002600002C02196ECCFC701DF91CF911F910F9172
:10027000FF90EF90DF90CF900895089580E090E098
:1002800008958CE791E00E94CE0321E0892B09F4C8
:1002900020E0822F08950E94CF0DEF92FF920F93DE
:1002A0001F93CF93DF93EC0181E0888F9B8D8C8D22
:1002B000981305C0E889F989808185FD24C0F62E50
:1002C0000B8D10E00F5F1F4F0F731127E02E8C8DE9
:1002D000E8120CC00FB607FCFACFE889F9898081D3
:1002E00085FFF5CFCE010E942704F1CF8B8DFE0153
:1002F000E80FF11DE35AFF4FF0820B8FEA89FB896B
:100300008081806207C0EE89FF896083E889F9896E
:1003100080818064808381E090E0DF91CF911F91A4
:100320000F91FF90EF900895CF93DF93EC01888DAC
:100330008823C9F0EA89FB89808185FD05C0A889E9
:10034000B9898C9186FD0FC00FB607FCF5CF80816F
:1003500085FFF2CFA889B9898C9185FFEDCFCE01B9
:100360000E942704E7CFDF91CF910895009769F0AD
:10037000FC0101900020E9F73197AF01481B590BB0
:10038000BC018CE791E00C94120180E090E00895AC
:10039000CF92DF92EF92FF920F931F93CF93DF9351
:1003A00000D0CDB7DEB78C01F62EFC01828993898F
:1003B00049835A830E94690560E0F80186850E949E
:1003C000710482E10E9462054981E42EC42E5A81A3
:1003D000D52E8C2D8E198F1530F4F60181916F0179
:1003E0000E946205F6CF61E0F80186850E947104E3
:1003F0000F900F90DF91CF911F910F91FF90EF9091
:10040000DF90CF900C9461054F925F926F927F9234
:100410008F929F92AF92BF92CF92DF92EF92FF9214
:100420000F931F93CF93DF9300D0CDB7DEB74C016E
:100430002B01D42E3901E114F10419F0F7014081A8
:1004400001C040E0B42EF0E1CF9EB00C112440E09A
:1004500062E0C4010E948A054FE768E0C4010E947F
:100460008A0540E864E1C4010E948A05A2016D2D5D
:10047000C4010E94C8014B2D6AE1C4010E948A0593
:100480004CE062E0C4010E948A056AE1C4010E9456
:100490006C05482F40686AE1C4010E948A0580ED1E
:1004A000482E87E0582E68E0C4010E946C05982F02
:1004B000907341F480FD04C081E0481A510899F717
:1004C00083E0A1C06CE0C4010E946C05D82E83714A
:1004D00009F098C06114710409F45AC0011511059E
:1004E00009F456C064E1C4010E946C05B82EF801FD
:1004F00080818B1508F480C0B082BB20F1F1F4013B
:10050000828993890E94690560E0F40186850E94D2
:10051000710482E90E946205CC20A1F08FEF90E087
:100520002C0101C0440CCA94EAF782E90E946205DA
:1005300084214094F3019081492284298083CC2432
:10054000C39401C0C12CBA944C2C512C460C571C9E
:10055000CB1438F482E90E946205F2018083C394CF
:10056000F3CF80E00E946205F201808361E0F40134
:1005700086850E9471040E94610568E1C4010E94A1
:100580006C058770E114F10421F0F701808301C04C
:1005900080E0D3FC33C06114710491F101151105A1
:1005A00079F1AA2069F1F8014081413019F48430D1
:1005B00019F420C0423010F487E025C08111FCCF2F
:1005C00042509E012F5F3F4FB301C4010E941906A4
:1005D000811119C0F8018081680E711CF3013297F6
:1005E000908189819813E8CF319690818A81981300
:1005F000E3CF06C08FEF07C084E005C082E003C0F0
:1006000080E001C081E00F900F90DF91CF911F91AA
:100610000F91FF90EF90DF90CF90BF90AF909F90A1
:100620008F907F906F905F904F9008950F931F93DE
:10063000CF93DF938C01C0E0D0E0F801EC0FFD1FF9
:100640006491662371F0E0917C01F0917D0101904D
:10065000F081E02D8CE791E00995892B11F021962E
:10066000ECCFCE01DF91CF911F910F910895CF93E1
:10067000DF930E941603EC0184E291E00E94B60130
:100680008C0F9D1FDF91CF9108951F920F920FB68F
:100690000F9211242F933F934F935F936F937F9308
:1006A0008F939F93AF93BF93EF93FF938CE791E06A
:1006B0000E942704FF91EF91BF91AF919F918F917D
:1006C0007F916F915F914F913F912F910F900FBE4E
:1006D0000F901F9018951F920F920FB60F92112432
:1006E0002F938F939F93EF93FF93E0918C01F09161
:1006F0008D018081E0919201F091930182FD12C001
:100700009081809195018F5F8F7320919601821760
:1007100051F0E0919501F0E0E458FE4F958F809301
:10072000950101C08081FF91EF919F918F912F9151
:100730000F900FBE0F901F901895FC01538D448DA4
:10074000252F30E0842F90E0821B930B541710F07C
:10075000CF96089501970895FC01918D828D981789
:1007600061F0828DDF01A80FB11D5D968C91928D95
:100770009F5F9F73928F90E008958FEF9FEF089592
:10078000FC01918D828D981731F0828DE80FF11D5B
:10079000858D90E008958FEF9FEF0895FC01918D76
:1007A000228D892F90E0805C9F4F821B91098F736F
:1007B0009927089580E090E0892B29F00E9441015B
:1007C00081110C94000008953FB7F89480913C0289
:1007D00090913D02A0913E02B0913F0226B5A89BA8
:1007E00005C02F3F19F00196A11DB11D3FBFBA2FC3
:1007F000A92F982F8827820F911DA11DB11DBC0123
:10080000CD0142E0660F771F881F991F4A95D1F7E7
:100810000895DC01ED91FD91BD010190F081E02D85
:1008200040E0099591E0811190E0892F089544E01E
:1008300050E0BC0183E392E00E94890D6091330295
:100840007091340280913502909136020895FC0136
:10085000848DDF01A80FB11DA35ABF4F2C91848D49
:1008600090E001968F739927848FA689B7892C937E
:10087000A089B1898C9180648C93938D848D981319
:1008800006C00288F389E02D80818F7D80830895E2
:10089000833081F028F4813099F08230A1F00895FE
:1008A0008730A9F08830B9F08430D1F4809180008D
:1008B0008F7D03C0809180008F77809380000895A2
:1008C00084B58F7702C084B58F7D84BD08958091F3
:1008D000B0008F7703C08091B0008F7D8093B0000F
:1008E00008951F93CF93DF93282F30E0F901EC5543
:1008F000FF4F8491F901E057FF4FD491F901E4587B
:10090000FF4FC491CC23C9F0162F81110E944804D7
:10091000EC2FF0E0EE0FFF1FED53FE4FA591B491C9
:100920008FB7F894111105C09C91ED2FE095E92344
:1009300002C0EC91ED2BEC938FBFDF91CF911F9113
:100940000895CF93DF9390E0FC01E057FF4F24918F
:10095000FC01E458FF4F8491882361F190E0880FF7
:10096000991FFC01E859FF4FC591D491FC01ED534B
:10097000FE4FA591B491611109C09FB7F894888189
:10098000209582238883EC912E230BC0623061F482
:100990009FB7F8943881822F809583238883EC91C8
:1009A0002E2B2C939FBF06C08FB7F894E8812E2B77
:1009B00028838FBFDF91CF9108958F929F92AF923E
:1009C000BF92CF92DF92EF92FF926B017C010E9467
:1009D000E4034B015C01C114D104E104F104F1F022
:1009E0000E94E403DC01CB0188199909AA09BB091B
:1009F000883E9340A105B10570F321E0C21AD108E9
:100A0000E108F10888EE880E83E0981EA11CB11C55
:100A1000C114D104E104F10419F7DDCFFF90EF9088
:100A2000DF90CF90BF90AF909F908F9008951F92CE
:100A30000F920FB60F9211242F933F938F939F9392
:100A4000AF93BF938091380290913902A0913A02FE
:100A5000B0913B023091370223E0230F2D3720F471
:100A60000196A11DB11D05C026E8230F0296A11D08
:100A7000B11D209337028093380290933902A093DE
:100A80003A02B0933B0280913C0290913D02A091CA
:100A90003E02B0913F020196A11DB11D80933C0220
:100AA00090933D02A0933E02B0933F02BF91AF915D
:100AB0009F918F913F912F910F900FBE0F901F909C
:100AC000189508958EBD00000DB407FEFDCF8EB5BC
:100AD00008958CBD9DBD08951F93CF93DF93EC01C6
:100AE000162F8A899B890E94690560E08E850E9485
:100AF0007104812F80680E94620580E00E94620577
:100B0000182F61E08E850E947104812FDF91CF91B3
:100B10001F910895EF92FF921F93CF93DF931F923F
:100B2000CDB7DEB77C01162FFC01828993894983FA
:100B30000E94690560E0F70186850E947104812F9B
:100B40000E9462054981842F0E94620561E0F701DD
:100B500086850F90DF91CF911F91FF90EF900C94BD
:100B600071048F929F92AF92CF92EF92FF920F9368
:100B70001F93CF93DF9300D000D01F92CDB7DEB785
:100B80004C0182E08D8340E064E2C4010E948A054A
:100B900040E066E2C4010E948A0546E268E4C401BE
:100BA0000E948A0586E28C838D81823040F16CE15F
:100BB000C4010E946C05482F4F776CE1C4010E946C
:100BC0008A0587E08B83A12CC12CCE0103967C0182
:100BD0008E010B5F1F4F9E012F5F3F4F41E0BE0113
:100BE0006C5F7F4FC4010E94040281110BC08D8194
:100BF000823039F481E09B81911104C008C084E007
:100C000001C081E091E0823019F090E001C091E0F4
:100C1000892F0F900F900F900F900F90DF91CF9131
:100C20001F910F91FF90EF90CF90AF909F908F907A
:100C30000895CF92DF92EF92FF920F931F93CF937D
:100C4000DF93EC016B01142F790140E062E00E9418
:100C50008A0544E06AE0CE010E948A0540E864E12A
:100C6000CE010E948A05A601612FCE010E94C80113
:100C700043E062E0CE010E948A0508E813E16AE0E1
:100C8000CE010E946C0582FF13C040E062E0CE01FD
:100C90000E948A0564E4CE010E946C05F7018083FE
:100CA00062E4CE010E946C05F701818380E004C0FC
:100CB0000150110921F783E0DF91CF911F910F912E
:100CC000FF90EF90DF90CF9008952F923F924F9238
:100CD0005F926F927F928F929F92AF92BF92CF92CC
:100CE000DF92EF92FF920F931F93CF93DF93CDB7D5
:100CF000DEB72D970FB6F894DEBF0FBECDBF4135DE
:100D000008F00EC1342E3B014C016CE10E946C05D1
:100D1000482F4F776CE1C4010E948A05BB24B3942D
:100D200042E0B41691F083E0B816E1F091E0B91218
:100D3000FBC083E989833320D1F081E0F301908106
:100D4000953008F480E0D12C17C085E989833320E1
:100D500081F081E0F3019081983008F480E0A3E015
:100D6000DA2E0AC087E98983F6E0DF2E04C0D12C91
:100D700002C0E3E0DE2E80E0532DF8EFDF9E500D41
:100D8000112457FD50E0882321F098E89B8343E02D
:100D900001C042E021E0952F977009F420E0952FE3
:100DA000959595959595290F21F4882311F1585F14
:100DB00020C0811102C094E001C093E0291708F41B
:100DC000922F20E030E06D2D70E0E42FE20FA1E0E3
:100DD000B0E0AC0FBD1FAE0FB11DF901E60FF71F5C
:100DE000E60DF71DE181EC932F5F3F4F291768F364
:100DF000DCCF73E0272E5032FCF040E74A839C8121
:100E00008B8189279D8189279E8189278F839E01D8
:100E1000285F3F4F47E0BE016F5F7F4FC4015D8792
:100E20000E9419065D858111CBC01B862A86CE01E2
:100E300007962C0179E01EC0952F97709B87252F70
:100E400025952595259582E0820F392FE0E18E9F2B
:100E5000300D11243A8371E0911101C070E0780FD8
:100E600044244394512C4C0E5D1E480E511C87E0C7
:100E7000821B8A87CB844C2D4295407F4C0D6AE1C2
:100E8000C4015D877C870E948A05A12CCE010B9648
:100E90007C018E01065F1F4F92017C85472FBE01AA
:100EA0006F5F7F4FC4010E9404025D85823091F51F
:100EB0006CE1C4010E946C055D8585FD33C08F71B6
:100EC00009F480E290E0252F052E000C330B281743
:100ED000390754F501979C012770332743E0959516
:100EE00087954A95E1F78F5F91E02115310509F467
:100EF00090E0890FE1E0F0E0EC0FFD1FE80FF11D3D
:100F000081E090E001C0880F2A95EAF79081892B53
:100F1000808371CF811154C0503244F450E26DCFC0
:100F200086E04EC082E04CC085E04AC08B818838A4
:100F300009F043C033E023E080E090E06D2D70E0E5
:100F4000FC01E60FF71FE60DF71D432F480FA1E048
:100F5000B0E0AC0FBD1FA40FB11D4C9141830196B1
:100F6000821770F38A85833021F58B85811121C02A
:100F70009E012D5F3F4F41E0B201C4010E9419065E
:100F800081111EC09B81F2018181981314C09C8144
:100F90008281981310C0808182FF02C0B394C0CEBA
:100FA000F30183878B2D880FB80EB394B08280E055
:100FB00007C081E005C087E003C032E024E0BCCF79
:100FC0002D960FB6F894DEBF0FBECDBFDF91CF9147
:100FD0001F910F91FF90EF90DF90CF90BF90AF9057
:100FE0009F908F907F906F905F904F903F902F9049
:100FF0000895CF93C82F8CE191E00E94B6016C2F29
:1010000070E0660F771F6F547E4F42E050E081E33F
:1010100092E00E94890D80913102909132020E94EB
:10102000B60184E291E0CF910C94B601AF92BF92E9
:10103000CF92DF92EF92FF920F931F93CF93DF93A4
:10104000CDB7DEB7A9970FB6F894DEBF0FBECDBF00
:10105000B82E8B0189E192E00E94B1058823D1F37B
:1010600089E192E00E9409048823A1F387E291E0DC
:101070000E94B6018EE291E00E94B601CB2CD12CE9
:10108000E12CF12C19A2CE018196B701A6014F7077
:1010900055276627772724E0F694E794D794C794DA
:1010A0002A95D1F701974A3051056105710510F471
:1010B000405D01C0495CFC014083C114D104E104DE
:1010C000F10419F70E94B6018DEA91E00E9416031F
:1010D0000115110509F449C082EA8AA3BBA2F801EF
:1010E00080819181A281B3818CA39DA3AEA3BFA374
:1010F00086E0FE01B296DE01119601900D928A956E
:10110000E1F79E01295F3F4F46E0BE016F5F7F4FD1
:1011100089E192E00E941906811123C082E189A72A
:1011200018A6A12CC12CCE0188967C018E01075DEA
:101130001F4F9E012F5F3F4F48E0B90189E192E0C8
:101140000E94040281110DC089A5813061F488A537
:1011500011E0843059F489818A3009F410E0119546
:1011600005C0182F03C011E001C016E0812F0E94B6
:10117000F9071123A1F060E082E00E94710468EC9D
:1011800070E080E090E00E94DD0461E082E00E9477
:10119000710468EC70E080E090E00E94DD0481E082
:1011A000111101C080E0A9960FB6F894DEBF0FBE02
:1011B000CDBFDF91CF911F910F91FF90EF90DF9006
:1011C000CF90BF90AF9008952F923F924F925F9231
:1011D0006F927F928F929F92AF92BF92CF92DF9247
:1011E000EF92FF920F931F93CF93DF93CDB7DEB7AC
:1011F0002C970FB6F894DEBF0FBECDBF9C878B87B0
:10120000DC0113968C91139712964C901297512CE7
:10121000612C712C320155244424782A8C91482A5F
:1012200011968C91582A85E491E00E941704460E8D
:10123000571E681E791EEB85FC858781C680D12CE0
:10124000E12CF12C7601DD24CC24F82A8481C82AF3
:101250008581D82A89E491E00E941704C60ED71E22
:10126000E81EF91E1A8619864C245D246E247F24FC
:10127000F601EF71FF2700E210E00E1B1F0B920139
:10128000A30160E070E080E090E00E94AD0D298352
:101290003A834B835C839201A30160E070E080E0BD
:1012A00090E00E2F0E94920D19012A0189809A80E8
:1012B000AB80BC8082289328A428B52889859A858C
:1012C000835B9E4F0E94170424013501460E571E72
:1012D000681E791EC424D524E624F724460157014C
:1012E000F201EF71FF2700E210E00E1B1F0B9601C9
:1012F000A50160E070E080E090E00E94AD0D2983E0
:101300003A834B835C839601A50160E070E080E046
:1013100090E00E2F0E94920D49015A0189819A8115
:10132000AB81BC81882A992AAA2ABB2A89859A85F9
:101330008F5A9E4F0E94170475016401C60ED71E76
:10134000E81EF91ED701C60184259525A625B725D7
:101350001C012D01F601EF71FF2700E210E00E1BCA
:101360001F0B9C01A20160E070E080E090E00E9411
:10137000AD0D29833A834B835C839101A20160E028
:1013800070E080E090E00E2F0E94920D29013A015A
:1013900089819A81AB81BC81482A592A6A2A7B2A91
:1013A00029843A8490E1290E311CC1018B5B9E4F48
:1013B0000E941704460E571E681E791EC424D524A9
:1013C000E624F72446015701F201EF71FF2700E2FE
:1013D00010E00E1B1F0B9601A50160E070E080E09D
:1013E00090E00E94AD0D29833A834B835C83960184
:1013F000A50160E070E080E090E00E2F0E94920D69
:1014000049015A0189819A81AB81BC81882A992A34
:10141000AA2ABB2A89859A85875A9E4F0E9417045B
:1014200075016401C60ED71EE81EF91E3A8629868C
:10143000D101A036B10509F017CFEB85FC854082BC
:10144000518262827382C482D582E682F7822C96B0
:101450000FB6F894DEBF0FBECDBFDF91CF911F91C5
:101460000F91FF90EF90DF90CF90BF90AF909F9043
:101470008F907F906F905F904F903F902F90089546
:10148000ECE7F1E01382128288EE93E0A0E0B0E096
:1014900084839583A683B78384E091E091838083DE
:1014A00085EC90E09587848784EC90E09787868729
:1014B00080EC90E0918B808B81EC90E0938B828B21
:1014C00082EC90E0958B848B86EC90E0978B868BFA
:1014D000118E128E138E148EE9E1F2E086E191E016
:1014E000918380838AE0868789E0878780E392E022
:1014F000918B808B83E5828B138A0895CF93DF9342
:10150000CDB7DEB76F970FB6F894DEBF0FBECDBF75
:10151000789484B5826084BD84B5816084BD85B5CE
:10152000826085BD85B5816085BD80916E008160DA
:1015300080936E0010928100809181008260809380
:101540008100809181008160809381008091800082
:101550008160809380008091B10084608093B100AD
:101560008091B00081608093B00080917A008460A7
:1015700080937A0080917A00826080937A008091D3
:101580007A00816080937A0080917A0080688093ED
:101590007A001092C100E0918C01F0918D0182E0FF
:1015A0008083E0918801F09189011082E0918A01A5
:1015B000F0918B0180E1808310929401E091900181
:1015C000F091910186E08083E0918E01F0918F018E
:1015D000808180618083E0918E01F0918F01808114
:1015E00088608083E0918E01F0918F018081806816
:1015F0008083E0918E01F0918F0180818F7D8083C7
:101600001FB7F89480912D02811127C0E6E8F0E021
:101610008491EAE9F0E09491E82FF0E0EE0FFF1FEB
:10162000E859FF4FA591B491EC91E92321F461E0D1
:101630008AE00E94710461E08AE00E94A1048CB5F6
:1016400080618CBD8CB580648CBD61E08DE00E94B2
:10165000A10461E08BE00E94A10480912D028F5FC4
:1016600080932D021FBF61E0809127020E94A10498
:1016700061E0809127020E947104809128028F3FCF
:1016800069F44FE062E089E192E00E948A0562E33A
:1016900070E080E090E00E94DD0425C060E00E94E0
:1016A000A1042091280230E0F901EC55FF4F84910C
:1016B000F901E057FF4F0491F901E458FF4F1491ED
:1016C000112309F415C281110E944804E12FF0E0B2
:1016D000EE0FFF1FEE58FF4FA591B491EC91E02360
:1016E00009F406C2CECF62E089E192E00E946C0567
:1016F00084FDF9CF40E064E289E192E00E948A052E
:1017000040E066E289E192E00E948A0546E268E4F0
:1017100089E192E00E948A0540E864E589E192E06F
:101720000E948A0549EA66E589E192E00E948A05FD
:1017300043E068E589E192E00E948A0548EE6AE5A7
:1017400089E192E00E948A0540E46AE289E192E040
:101750000E948A054DE362E289E192E00E948A05D7
:1017600068E289E192E00E946C05982F93709330B3
:1017700039F0482F436068E289E192E00E948A05CF
:1017800061E082E00E94A104CE0101964C012E018D
:1017900099E0490E511C61E082E00E9471048AE2E6
:1017A00091E00E94370389E192E00E94B10588230D
:1017B000D1F389E192E00E9409048823A1F364E651
:1017C00070E080E090E00E94DD0490912102809121
:1017D0001E02890F877098E0F40111929A95E9F73B
:1017E00020E030E090E0F901E80FF91FE770FF27F3
:1017F000E80DF91DD901A75EBD4F13964C914083AA
:101800002F5F3F4F2730310571F7C4010E94E40874
:10181000F401612C712C81919DE0899F600C711CF9
:101820001124E415F505B9F790911F0280911D026E
:10183000890F90912102890F877098E0F40111922D
:101840009A95E9F720E030E090E0F901E80FF91F00
:10185000E770FF27E80DF91DD901A75EBD4F13966C
:101860004C9140832F5F3F4F2730310571F7C40102
:101870000E94E4089B818981890F9D81890F9F8146
:10188000890F837090E0E3E0F0E0EC0FFD1FE80FBC
:10189000F91F4081E2E0F0E0EC0FFD1FE80FF91FB7
:1018A0003081F401E80FF91F2081E4E0F0E0EC0F53
:1018B000FD1FE80FF91F80818B8F4C8F3D8F2E8F7E
:1018C00009EE10E0F1E00A321F07C9F0B8016F5FBE
:1018D0007F4F44E050E0C4010E94890D41E050E098
:1018E000B8018EE292E00E94890DB40180912E022F
:1018F0000E9416080B5F1F4F882321F3ECC08AE576
:101900008F8B10E5188F1A8E00E4098FBE01695E77
:101910007F4F88E00E9416088111DDC00F8B8DE09B
:10192000888F83E0898F1A8EBE01695E7F4F84E1C4
:101930000E9416088111CFC088E08F8B8FE1888FBD
:1019400081E3898F84E58A8FBE01695E7F4F85E1DF
:101950000E9416088111BFC01F8B81EB888F80EE1B
:10196000898F8EEC8A8FBE01695E7F4F86E10E946F
:1019700016088111B0C082E58F8B87EE888F8FE4C7
:10198000898F86E78A8FBE01695E7F4F87E10E945B
:1019900016088111A0C08DEC90E00E94370382E10F
:1019A0008F8F80E389838AE28A839E012D5F3F4F78
:1019B00042E0B40189E192E00E94190681110FC052
:1019C000AA24A394C12CE12CF12C8E01015E1F4F9F
:1019D000940144E0B40189E192E00E940402182FCE
:1019E0000E94F907111177C08981887780688F8BF1
:1019F000188E198E1A8EBE01695E7F4F8AE20E9490
:101A00001608811168C088EB90E00E94370382E1DC
:101A10008F8F80E3898389E28A839E012D5F3F4F08
:101A200042E0B40189E192E00E94190681110FC0E1
:101A3000AA24A394C12CE12CF12C8E01015E1F4F2E
:101A4000940144E0B40189E192E00E940402182F5D
:101A50000E94F90711113FC089818F8B188E8A81EE
:101A6000898F88E08A8FBE01695E7F4F89E20E947C
:101A70001608811130C085E5682678266B8A7C8A35
:101A80001D8A1E8ABE016D5E7F4F8CE20E94160881
:101A9000811106C0BE01655E7F4F8BE20E94160871
:101AA00003E010E060E082E00E94710468EC70E006
:101AB00080E090E00E94DD0461E082E00E94710419
:101AC00068EC70E080E090E00E94DD0401501109B4
:101AD00049F710922F0260E082E00E94710460EDED
:101AE00077E080E090E00E94DD040E94DA0353CEAC
:101AF00061E0809128020E94A10461E080912802A7
:101B00000E94710462E370E080E090E00E94DD04D6
:101B1000F1CDFB01DC0102C005900D924150504017
:101B2000D8F708950F93083090F0982F872F762FCD
:101B3000652F542F432F322F22270850F4CF220F26
:101B4000331F441F551F661F771F881F991F0A9553
:101B5000B2F70F91089597FB10F8169400080F93B1
:101B6000083098F00850232F342F452F562F672F19
:101B7000782F892F902DF4CF059497958795779599
:101B8000679557954795379527950A95AAF70F9129
:101B90000895EE0FFF1F0590F491E02D099481E068
:0C1BA00090E0F8940C94D40DF894FFCF62
:101BAC00000000004D0112019D039401CE03AC0313
:101BBC00C003000000006506B105090453544154EC
:101BCC0055535F000D0A0057726974652000307818
:101BDC00004F4B00434F4C4C4953494F4E00544916
:101BEC004D454F5554004E4F5F524F4F4D00494E8F
:101BFC005445524E414C5F4552524F5200494E563D
:101C0C00414C4944004352435F57524F4E47004D9D
:0C1C1C0049464152455F4E41434B0000D9
:00000001FF
