:100000000C9462000C948A000C948A000C948A0070
:100010000C948A000C948A000C948A000C948A0038
:100020000C948A000C948A000C948A000C948A0028
:100030000C948A000C948A000C948A000C948A0018
:100040000C9480080C948A000C944E080C94280898
:100050000C948A000C948A000C948A000C948A00F8
:100060000C948A000C948A000000000025002800EF
:100070002B0000000000240027002A0000000000E0
:1000800023002600290004040404040404040202DA
:100090000202020203030303030301020408102007
:1000A0004080010204081020010204081020000012
:1000B0000008000201000003040700000000000027
:1000C0000000CA0811241FBECFEFD4E0DEBFCDBFB1
:1000D00011E0A0E0B1E0EEEFFCE102C005900D926E
:1000E000A63CB107D9F722E0A6ECB1E001C01D9211
:1000F000A238B207E1F710E0C2E6D0E004C02197D1
:10010000FE010E949A0BC136D107C9F70E94080967
:100110000C947D0E0C940000CF92DF92EF92FF9230
:100120000F931F93CF93DF936C017A018B01C0E093
:10013000D0E0CE15DF0589F0D8016D918D01D60193
:10014000ED91FC910190F081E02DC6010995892B7C
:1001500011F47E0102C02196ECCFC701DF91CF914F
:100160001F910F91FF90EF90DF90CF900895089529
:1001700080E090E00895FC01538D448D252F30E000
:10018000842F90E0821B930B541710F0CF960895A4
:1001900001970895FC01918D828D981761F0828DF1
:1001A000DF01A80FB11D5D968C91928D9F5F9F73AB
:1001B000928F90E008958FEF9FEF0895FC01918D4D
:1001C000828D981731F0828DE80FF11D858D90E0BA
:1001D00008958FEF9FEF0895FC01918D228D892F57
:1001E00090E0805C9F4F821B91098F73992708953F
:1001F00080ED91E00E94EC0021E0892B09F420E0E1
:10020000822F0895FC01848DDF01A80FB11DA35A30
:10021000BF4F2C91848D90E001968F739927848F26
:10022000A689B7892C93A089B1898C9180648C931D
:10023000938D848D981306C00288F389E02D808108
:100240008F7D80830895EF92FF920F931F93CF933A
:10025000DF93EC0181E0888F9B8D8C8D981305C016
:10026000E889F989808185FD24C0F62E0B8D10E088
:100270000F5F1F4F0F731127E02E8C8DE8120CC0FB
:100280000FB607FCFACFE889F989808185FFF5CFA1
:10029000CE010E940201F1CF8B8DFE01E80FF11D0E
:1002A000E35AFF4FF0820B8FEA89FB8980818062DD
:1002B00007C0EE89FF896083E889F98980818064BD
:1002C000808381E090E0DF91CF911F910F91FF90AB
:1002D000EF900895CF93DF93EC01888D8823C9F0C8
:1002E000EA89FB89808185FD05C0A889B9898C913F
:1002F00086FD0FC00FB607FCF5CF808185FFF2CFDA
:10030000A889B9898C9185FFEDCFCE010E940201A9
:10031000E7CFDF91CF91089580E090E0892B29F01D
:100320000E94F80081110C9400000895833081F040
:1003300028F4813099F08230A1F008958730A9F037
:100340008830B9F08430D1F4809180008F7D03C073
:10035000809180008F7780938000089584B58F7797
:1003600002C084B58F7D84BD08958091B0008F77E1
:1003700003C08091B0008F7D8093B00008951F93DB
:10038000CF93DF93282F30E0F901E255FF4F84919E
:10039000F901E656FF4FD491F901EA57FF4FC49196
:1003A000CC23C9F0162F81110E949601EC2FF0E0AA
:1003B000EE0FFF1FE859FF4FA591B4918FB7F89446
:1003C000111105C09C91ED2FE095E92302C0EC913D
:1003D000ED2BEC938FBFDF91CF911F910895CF93B9
:1003E000DF9390E0FC01E656FF4F2491FC01EA57B1
:1003F000FF4F8491882361F190E0880F991FFC01E1
:10040000EE58FF4FC591D491FC01E859FF4FA591DB
:10041000B491611109C09FB7F89488812095822317
:100420008883EC912E230BC0623061F49FB7F8945F
:100430003881822F809583238883EC912E2B2C93F7
:100440009FBF06C08FB7F894E8812E2B28838FBFFB
:10045000DF91CF9108953FB7F8948091CB019091AF
:10046000CC01A091CD01B091CE0126B5A89B05C0CD
:100470002F3F19F00196A11DB11D3FBFBA2FA92F23
:10048000982F8827820F911DA11DB11DBC01CD01A0
:1004900042E0660F771F881F991F4A95D1F708958C
:1004A0008F929F92AF92BF92CF92DF92EF92FF9284
:1004B0000E942B024B015C0182E3C82ED12CE12C5F
:1004C000F12C0E942B02DC01CB0188199909AA09A1
:1004D000BB09883E9340A105B10558F021E0C21A3E
:1004E000D108E108F10888EE880E83E0981EA11C6F
:1004F000B11CC114D104E104F10419F7FF90EF908D
:10050000DF90CF90BF90AF909F908F900895DC01C7
:10051000ED91FD91BD010190F081E02D40E0099544
:1005200091E0811190E0892F089508958EBD00001B
:100530000DB407FEFDCF8EB508958CBD9DBD089509
:10054000CF92DF92EF92FF920F931F93CF93DF939F
:1005500000D0CDB7DEB78C01F62EFC0182899389DD
:1005600049835A830E949D0260E0F80186850E94BB
:10057000BF0182E10E9496024981E42EC42E5A8175
:10058000D52E8C2D8E198F1530F4F60181916F01C7
:100590000E949602F6CF61E0F80186850F900F90D9
:1005A000DF91CF911F910F91FF90EF90DF90CF904F
:1005B0000C94BF011F93CF93DF93EC01162F8A8910
:1005C0009B890E949D0260E08E850E94BF01812F61
:1005D00080680E94960280E00E949602182F61E0D7
:1005E0008E850E94BF01812FDF91CF911F910895C9
:1005F000EF92FF921F93CF93DF931F92CDB7DEB799
:100600007C01162FFC018289938949830E949D02F7
:1006100060E0F70186850E94BF01812F0E9496024B
:100620004981842F0E94960261E0F70186850F9030
:10063000DF91CF911F91FF90EF900C94BF01CF926B
:10064000DF92EF92FF920F931F93CF93DF93EC0112
:100650006B01142F790140E062E00E94F80244E04F
:100660006AE0CE010E94F80240E864E1CE010E94F7
:10067000F802A601612FCE010E94A00243E062E0D1
:10068000CE010E94F80208E813E16AE0CE010E9460
:10069000DA0282FF13C040E062E0CE010E94F8025D
:1006A00064E4CE010E94DA02F701808362E4CE01A5
:1006B0000E94DA02F701818380E004C00150110931
:1006C00021F783E0DF91CF911F910F91FF90EF9081
:1006D000DF90CF9008954F925F926F927F928F92AA
:1006E0009F92AF92BF92CF92DF92EF92FF920F93C1
:1006F0001F93CF93DF9300D0CDB7DEB74C012B0112
:10070000D42E3901E114F10419F0F701408101C040
:1007100040E0B42EF0E1CF9EB00C112440E062E046
:10072000C4010E94F8024FE768E0C4010E94F80289
:1007300040E864E1C4010E94F802A2016D2DC401E9
:100740000E94A0024B2D6AE1C4010E94F8024CE015
:1007500062E0C4010E94F8026AE1C4010E94DA0268
:10076000482F40686AE1C4010E94F80280ED482EDB
:1007700087E0582E68E0C4010E94DA02982F907337
:1007800041F480FD04C081E0481A510899F783E0E4
:100790009FC06CE0C4010E94DA02D82E837109F078
:1007A00096C06114710409F458C00115110509F4CB
:1007B00054C064E1C4010E94DA02B82EF8018081BD
:1007C0008B1508F47EC0B082BB20E1F1F401828970
:1007D00093890E949D0260E0F40186850E94BF011A
:1007E00082E90E949602CC20A1F08FEF90E02C01CC
:1007F00001C0440CCA94EAF782E90E94960284215F
:100800004094F3019081492284298083CC24C394AD
:1008100001C0C12CBA944C2C512C460C571CCB1443
:1008200038F482E90E949602F2018083C394F3CFE8
:1008300080E00E949602F201808361E0F4018685E7
:100840000E94BF0168E1C4010E94DA028770E114CE
:10085000F10421F0F701808301C080E0D3FC33C0B4
:100860006114710491F10115110579F1AA2069F162
:10087000F8014081413019F4843019F420C042302D
:1008800010F487E025C08111FCCF42509E012F5FFC
:100890003F4FB301C4010E941F03811119C0F80129
:1008A0008081680E711CF3013297908189819813C1
:1008B000E8CF319690818A819813E3CF06C08FEFFD
:1008C00007C084E005C082E003C080E001C081E091
:1008D0000F900F90DF91CF911F910F91FF90EF90AC
:1008E000DF90CF90BF90AF909F908F907F906F9050
:1008F0005F904F9008958F929F92AF92CF92EF9218
:10090000FF920F931F93CF93DF9300D000D01F92DD
:10091000CDB7DEB74C0182E08D8340E064E2C401D4
:100920000E94F80240E066E2C4010E94F80246E23A
:1009300068E4C4010E94F80286E28C838D818230D3
:1009400040F16CE1C4010E94DA02482F4F776CE15C
:10095000C4010E94F80287E08B83A12CC12CCE0138
:1009600003967C018E010B5F1F4F9E012F5F3F4F4F
:1009700041E0BE016C5F7F4FC4010E946B03811197
:100980000BC08D81823039F481E09B81911104C0CC
:1009900008C084E001C081E091E0823019F090E06D
:1009A00001C091E0892F0F900F900F900F900F9042
:1009B000DF91CF911F910F91FF90EF90CF90AF906B
:1009C0009F908F9008952F923F924F925F926F92D7
:1009D0007F928F929F92AF92BF92CF92DF92EF92CF
:1009E000FF920F931F93CF93DF93CDB7DEB72D9771
:1009F0000FB6F894DEBF0FBECDBF413508F00EC173
:100A0000342E3B014C016CE10E94DA02482F4F77F3
:100A10006CE1C4010E94F802BB24B39442E0B41616
:100A200091F083E0B816E1F091E0B912FBC083E9E0
:100A300089833320D1F081E0F3019081953008F46F
:100A400080E0D12C17C085E98983332081F081E0D3
:100A5000F3019081983008F480E0A3E0DA2E0AC018
:100A600087E98983F6E0DF2E04C0D12C02C0E3E0E1
:100A7000DE2E80E0532DF8EFDF9E500D112457FD40
:100A800050E0882321F098E89B8343E001C042E0D6
:100A900021E0952F977009F420E0952F9595959575
:100AA0009595290F21F4882311F1585F20C08111F9
:100AB00002C094E001C093E0291708F4922F20E0CF
:100AC00030E06D2D70E0E42FE20FA1E0B0E0AC0F5C
:100AD000BD1FAE0FB11DF901E60FF71FE60DF71DA3
:100AE000E181EC932F5F3F4F291768F3DCCF73E070
:100AF000272E5032FCF040E74A839C818B81892766
:100B00009D8189279E8189278F839E01285F3F4F82
:100B100047E0BE016F5F7F4FC4015D870E941F03E6
:100B20005D858111CBC01B862A86CE0107962C01DC
:100B300079E01EC0952F97709B87252F25952595C9
:100B4000259582E0820F392FE0E18E9F300D112430
:100B50003A8371E0911101C070E0780F442443940E
:100B6000512C4C0E5D1E480E511C87E0821B8A875B
:100B7000CB844C2D4295407F4C0D6AE1C4015D87CA
:100B80007C870E94F802A12CCE010B967C018E017D
:100B9000065F1F4F92017C85472FBE016F5F7F4F1D
:100BA000C4010E946B035D85823091F56CE1C40144
:100BB0000E94DA025D8585FD33C08F7109F480E201
:100BC00090E0252F052E000C330B2817390754F51C
:100BD00001979C012770332743E0959587954A95A7
:100BE000E1F78F5F91E02115310509F490E0890F5D
:100BF000E1E0F0E0EC0FFD1FE80FF11D81E090E077
:100C000001C0880F2A95EAF79081892B808371CFE4
:100C1000811154C0503244F450E26DCF86E04EC092
:100C200082E04CC085E04AC08B81883809F043C01F
:100C300033E023E080E090E06D2D70E0FC01E60FF2
:100C4000F71FE60DF71D432F480FA1E0B0E0AC0FF2
:100C5000BD1FA40FB11D4C9141830196821770F303
:100C60008A85833021F58B85811121C09E012D5FFE
:100C70003F4F41E0B201C4010E941F0381111EC019
:100C80009B81F2018181981314C09C818281981309
:100C900010C0808182FF02C0B394C0CEF30183876D
:100CA0008B2D880FB80EB394B08280E007C081E02E
:100CB00005C087E003C032E024E0BCCF2D960FB61C
:100CC000F894DEBF0FBECDBFDF91CF911F910F9182
:100CD000FF90EF90DF90CF90BF90AF909F908F905C
:100CE0007F906F905F904F903F902F9008952F923C
:100CF0003F924F925F926F927F928F929F92AF92AC
:100D0000BF92CF92DF92EF92FF920F931F93CF93F8
:100D1000DF93CDB7DEB762970FB6F894DEBF0FBE94
:100D2000CDBFFC0183814280512C612C712C32019A
:100D300055244424782A8081482A8181582A24E035
:100D4000421A25EA520A2CE7620A22E9720A8781CE
:100D5000C680D12CE12CF12C7601DD24CC24F82A9C
:100D60008481C82A8581D82A89E6C81A82E3D80AEC
:100D70008AEEE80A82E8F80AA0E0B1E0BA8BA98B13
:100D800030E2232E312C4C245D246E247F24D601A6
:100D9000AF71BB27BA87A98781010A1B1B0B920180
:100DA000A30160E070E080E090E00E947E0B298368
:100DB0003A834B835C839201A30160E070E080E0A2
:100DC00090E009850E94630B29013A0189819A818B
:100DD000AB81BC81482A592A6A2A7B2AA989BA8907
:100DE00018968D909D90AD90BC901B97480C591C07
:100DF0006A1C7B1CC424D524E624F7244601570131
:100E0000D201AF71BB27BA87A98781010A1B1B0BCF
:100E10009601A50160E070E080E090E00E947E0B0A
:100E200029833A834B835C839601A50160E070E0DF
:100E300080E090E009850E94630B49015A01C98056
:100E4000DA80EB80FC80C828D928EA28FB28A98909
:100E5000BA891C964D915D916D917C911F97C40E3E
:100E6000D51EE61EF71E4601570184249524A624AC
:100E7000B72424013501D601AF71BB27BA87A987F2
:100E800081010A1B1B0B9401A30160E070E080E06C
:100E900090E00E947E0B29833A834B835C8394010C
:100EA000A30160E070E080E090E009850E94630BA0
:100EB00029013A0189819A81AB81BC81482A592A4A
:100EC0006A2A7B2AA989BA8950964D915D916D91C4
:100ED0007C915397440E551E661E771EC424D5245C
:100EE000E624F72446015701D201AF71BB27BA8728
:100EF000A98781010A1B1B0B9601A50160E070E028
:100F000080E090E00E947E0B29833A834B835C83D0
:100F10006D837E838F8398879601A50160E070E0E2
:100F200080E090E009850E94630B49015A018981A4
:100F30009A81AB81BC81882A992AAA2ABB2AA989CD
:100F4000BA895496CD90DD90ED90FC905797C80CDF
:100F5000D91CEA1CFB1C5096BA8BA98BA056B14039
:100F600009F011CF4082518262827382C482D5829D
:100F7000E682F78262960FB6F894DEBF0FBECDBF51
:100F8000DF91CF911F910F91FF90EF90DF90CF9065
:100F9000BF90AF909F908F907F906F905F904F9099
:100FA0003F902F900895009769F0FC010190002078
:100FB000E9F73197AF01481B590BBC0180ED91E077
:100FC0000C948C0080E090E008958F929F92AF92F5
:100FD000BF920F931F93CF93DF93CDB7DEB7A19747
:100FE0000FB6F894DEBF0FBECDBF19A2423008F491
:100FF0004AE08E010F5D1F4F842E912CA12CB12C45
:10100000A50194010E94410BE62FB901CA010150CC
:101010001109EA3014F4E05D01C0E95CD801EC93F9
:10102000232B242B252B61F7C8010E94D307A196FF
:101030000FB6F894DEBF0FBECDBFDF91CF911F91E9
:101040000F91BF90AF909F908F9008950E94A00B3A
:101050001F920F920FB60F9211242F933F934F932D
:101060005F936F937F938F939F93AF93BF93EF9310
:10107000FF9380ED91E00E940201FF91EF91BF91FB
:10108000AF919F918F917F916F915F914F913F9120
:101090002F910F900FBE0F901F9018951F920F92D7
:1010A0000FB60F9211242F938F939F93EF93FF937B
:1010B000E091E001F091E1018081E091E601F091A1
:1010C000E70182FD12C090818091E9018F5F8F73EB
:1010D0002091EA01821751F0E091E901F0E0E0533C
:1010E000FE4F958F8093E90101C08081FF91EF91C0
:1010F0009F918F912F910F900FBE0F901F90189579
:101100001F920F920FB60F9211242F933F938F933C
:101110009F93AF93BF938091C7019091C801A09115
:10112000C901B091CA013091C60123E0230F2D37C8
:1011300020F40196A11DB11D05C026E8230F0296DB
:10114000A11DB11D2093C6018093C7019093C801D2
:10115000A093C901B093CA018091CB019091CC01B9
:10116000A091CD01B091CE010196A11DB11D80933A
:10117000CB019093CC01A093CD01B093CE01BF9150
:10118000AF919F918F913F912F910F900FBE0F9034
:101190001F901895E0EDF1E01382128288EE93E043
:1011A000A0E0B0E084839583A683B7838CE691E0CA
:1011B0009183808385EC90E09587848784EC90E030
:1011C0009787868780EC90E0918B808B81EC90E014
:1011D000938B828B82EC90E0958B848B86EC90E0F5
:1011E000978B868B118E128E138E148EEEE6F2E0A4
:1011F0008EE791E0918380838AE0868789E0878704
:101200008DE692E0918B808B83E5828B138A089523
:10121000CF93DF93CDB7DEB728970FB6F894DEBF34
:101220000FBECDBF789484B5826084BD84B58160E3
:1012300084BD85B5826085BD85B5816085BD8091A1
:101240006E00816080936E00109281008091810019
:101250008260809381008091810081608093810011
:10126000809180008160809380008091B1008460D3
:101270008093B1008091B00081608093B000809134
:101280007A00846080937A0080917A0082608093F3
:101290007A0080917A00816080937A0080917A0050
:1012A000806880937A001092C100E091E001F09193
:1012B000E10182E08083E091DC01F091DD011082A8
:1012C000E091DE01F091DF0180E180831092E8017E
:1012D000E091E401F091E50186E08083E091E20194
:1012E000F091E301808180618083E091E201F091DF
:1012F000E301808188608083E091E201F091E30165
:10130000808180688083E091E201F091E301808137
:101310008F7D80831FB7F8948091CF01811127C002
:10132000E0E9F0E08491E4EAF0E09491E82FF0E065
:10133000EE0FFF1FEE58FF4FA591B491EC91E923FA
:1013400021F461E08AE00E94BF0161E08AE00E942E
:10135000EF018CB580618CBD8CB580648CBD61E083
:101360008DE00E94EF0161E08BE00E94EF0180912F
:10137000CF018F5F8093CF011FBF61E080917C021E
:101380000E94EF0161E080917C020E94BF01809188
:101390007D028F3F49F44FE062E08EE692E00E94CA
:1013A000F8020E94500225C060E00E94EF012091E7
:1013B0007D0230E0F901E255FF4F8491F901E656D4
:1013C000FF4F0491F901EA57FF4F1491112309F4DB
:1013D0004BC181110E949601E12FF0E0EE0FFF1F3B
:1013E000E458FF4FA591B491EC91E02309F43CC17E
:1013F000D2CF62E08EE692E00E94DA0284FDF9CF5D
:1014000040E064E28EE692E00E94F80240E066E28C
:101410008EE692E00E94F80246E268E48EE692E0F0
:101420000E94F80240E864E58EE692E00E94F8022D
:1014300049EA66E58EE692E00E94F80243E068E53C
:101440008EE692E00E94F80248EE6AE58EE692E0AF
:101450000E94F80240E46AE28EE692E00E94F802FE
:101460004DE362E28EE692E00E94F80268E28EE6C8
:1014700092E00E94DA02982F9370933039F0482F4F
:10148000436068E28EE692E00E94F80261E082E04A
:101490000E94EF0161E082E00E94BF0184E891E0D8
:1014A0000E94D3078DEA91E00E94D3078EE692E076
:1014B0000E947B048823D1F38EE692E00E9487028B
:1014C0008823A1F32091740280917202280F8091E9
:1014D0007602280F27708E010F5F1F4F88E0F801FA
:1014E00011928A95E9F740E050E030E0C801FA0136
:1014F000E20FF31FE770FF27E80FF91FDA01A25987
:10150000BD4F13966C9160834F5F5F4F473051051D
:1015100071F70E9477069B818981890F9D81890FD0
:101520009F81890F8370C12CD12C760124E030E09B
:1015300090E0FE2CED2CDC2CCC24F901E80FF91FF7
:10154000E00FF11F4081C40ED11CE11CF11C2150A1
:10155000310978F79091760280917302890F877034
:1015600098E0F80111929A95E9F720E030E090E0D8
:10157000F901E80FF91FE770FF27E00FF11FD9010C
:10158000A259BD4F13964C9140832F5F3F4F273098
:10159000310571F7C8010E947706F8019E01275FA7
:1015A0003F4F80E090E0DC0141916DE0469FA0015B
:1015B0001124052E000C660B770B840F951FA61FB8
:1015C000B71FE217F30781F7E5E58E279E27782FEF
:1015D00066275B01A92A80EB91E00E94D3071B825A
:1015E00031E7832E32E0932E45EB642E41E0742EDA
:1015F000F8E78F16F2E09F06A9F0F40181914F0100
:101600001F928F937F926F921F930F930E94A50B4F
:10161000C8010E94D3070F900F900F900F900F906A
:101620000F90E6CF8DEA91E00E94D3078AEB91E01C
:101630000E94D30740E1C701B6010E94E5078DEA89
:1016400091E00E94D3078FEB91E00E94D307B50190
:1016500080E090E040E10E94E5078DEA91E00E9481
:10166000D3070E948C01FDCF61E080917D020E9432
:10167000EF0161E080917D020E94BF010E94500253
:10168000BFCEA1E21A2EAA1BBB1BFD010DC0AA1FD3
:10169000BB1FEE1FFF1FA217B307E407F50720F0DB
:1016A000A21BB30BE40BF50B661F771F881F991F56
:1016B0001A9469F760957095809590959B01AC019F
:1016C000BD01CF0108950F93083090F0982F872F18
:1016D000762F652F542F432F322F22270850F4CF17
:1016E000220F331F441F551F661F771F881F991F26
:1016F0000A95B2F70F91089597FB10F81694000819
:101700000F93083098F00850232F342F452F562F71
:10171000672F782F892F902DF4CF05949795879573
:101720007795679557954795379527950A95AAF721
:101730000F910895EE0FFF1F0590F491E02D09948D
:1017400081E090E0F8940C947D0EAEE0B0E0EBEA1E
:10175000FBE00C94540E0D891E8986E08C831A835D
:1017600009838FEF9FE79E838D83AE01475E5F4FB6
:101770006F89788DCE0101960E94C80B2F81388524
:10178000F801E20FF31F10822E96E4E00C94700E25
:10179000ACE0B0E0EEECFBE00C94460E7C016B019B
:1017A0008A01FC0117821682838181FFBDC1CE01AF
:1017B00001964C01F7019381F60193FD859193FF0A
:1017C00081916F01882309F4ABC1853239F493FD0F
:1017D000859193FF81916F01853229F4B70190E0E3
:1017E0000E94B00DE7CF512C312C20E02032A0F424
:1017F0008B3269F030F4803259F0833269F4206121
:101800002CC08D3239F0803339F4216026C022603B
:10181000246023C0286021C027FD27C030ED380F89
:101820003A3078F426FF06C0FAE05F9E300D1124AE
:10183000532E13C08AE0389E300D1124332E2062BF
:101840000CC08E3221F426FD6BC1206406C08C369C
:1018500011F4206802C0883641F4F60193FD8591A9
:1018600093FF81916F018111C1CF982F9F7D955476
:10187000933028F40C5F1F4FFFE3F9830DC08336CC
:1018800031F0833771F0833509F05BC022C0F80175
:10189000808189830E5F1F4F44244394512C54014F
:1018A00015C03801F2E06F0E711CF801A080B18004
:1018B00026FF03C0652D70E002C06FEF7FEFC5010A
:1018C0002C870E94A50D2C0183012C852F77222EB9
:1018D00017C03801F2E06F0E711CF801A080B180D2
:1018E00026FF03C0652D70E002C06FEF7FEFC501DA
:1018F0002C870E949A0D2C012C852068222E8301B2
:1019000023FC1BC0832D90E048165906B0F4B701A4
:1019100080E290E00E94B00D3A94F4CFF50127FCEC
:10192000859127FE81915F01B70190E00E94B00D83
:1019300031103A94F1E04F1A51084114510471F7F3
:10194000E5C0843611F0893639F5F80127FF07C064
:1019500060817181828193810C5F1F4F08C060811B
:101960007181072E000C880B990B0E5F1F4F2F768D
:10197000722E97FF09C090958095709561957F4F65
:101980008F4F9F4F2068722E2AE030E0A4010E9402
:10199000E80DA82EA81844C0853729F42F7EB22E52
:1019A0002AE030E025C0F22FF97FBF2E8F36C1F03C
:1019B00018F4883579F0B4C0803719F0883721F0F1
:1019C000AFC02F2F2061B22EB4FE0DC08B2D8460CE
:1019D000B82E09C024FF0AC09F2F9660B92E06C0FA
:1019E00028E030E005C020E130E002C020E132E034
:1019F000F801B7FE07C060817181828193810C5F1D
:101A00001F4F06C06081718180E090E00E5F1F4F24
:101A1000A4010E94E80DA82EA818FB2DFF777F2EA9
:101A200076FE0BC0372D3E7FA51450F474FE0AC01D
:101A300072FC08C0372D3E7E05C0BA2C372D03C07E
:101A4000BA2C01C0B52C34FF0DC0FE01EA0DF11D0A
:101A50008081803311F4397E09C032FF06C0B3940F
:101A6000B39404C0832F867809F0B39433FD13C078
:101A700030FF06C05A2CB31418F4530C5B18B32C67
:101A8000B31468F4B70180E290E03C870E94B00D87
:101A9000B3943C85F5CFB31410F43B1801C0312C3E
:101AA00034FF12C0B70180E390E03C870E94B00D84
:101AB0003C8532FF17C031FD03C088E790E002C0CB
:101AC00088E590E0B7010CC0832F867859F031FF8C
:101AD00002C08BE201C080E237FD8DE2B70190E0E9
:101AE0000E94B00DA51438F4B70180E390E00E9485
:101AF000B00D5A94F7CFAA94F401EA0DF11D80813C
:101B0000B70190E00E94B00DA110F5CF332009F489
:101B100051CEB70180E290E00E94B00D3A94F6CF2A
:101B2000F7018681978102C08FEF9FEF2C96E2E14B
:101B30000C94620EFC010590615070400110D8F7C2
:101B4000809590958E0F9F1F0895FC016150704005
:101B500001900110D8F7809590958E0F9F1F0895E2
:101B60000F931F93CF93DF93FB01238121FD03C0CC
:101B70008FEF9FEF28C022FF16C046815781248136
:101B800035814217530744F4A081B1819D012F5F35
:101B90003F4F318320838C93268137812F5F3F4FC6
:101BA0003783268310C0EB01092F182F0084F1859D
:101BB000E02D0995892BE1F68E819F8101969F8307
:101BC0008E83812F902FDF91CF911F910F910895D8
:101BD000FA01AA27283051F1203181F1E8946F935E
:101BE0006E7F6E5F7F4F8F4F9F4FAF4FB1E03ED004
:101BF000B4E03CD0670F781F891F9A1FA11D680FA2
:101C0000791F8A1F911DA11D6A0F711D811D911DD4
:101C1000A11D20D009F468943F912AE0269F112449
:101C20003019305D3193DEF6CF010895462F4770AD
:101C3000405D4193B3E00FD0C9F7F6CF462F4F7008
:101C4000405D4A3318F0495D31FD4052419302D066
:101C5000A9F7EACFB4E0A69597958795779567950C
:101C6000BA95C9F700976105710508959B01AC010C
:101C70000A2E06945795479537952795BA95C9F733
:101C8000620F731F841F951FA01D08952F923F920E
:101C90004F925F926F927F928F929F92AF92BF927C
:101CA000CF92DF92EF92FF920F931F93CF93DF9328
:101CB000CDB7DEB7CA1BDB0B0FB6F894DEBF0FBE85
:101CC000CDBF09942A88398848885F846E847D84D2
:101CD0008C849B84AA84B984C884DF80EE80FD80D4
:101CE0000C811B81AA81B981CE0FD11D0FB6F8944A
:0E1CF000DEBF0FBECDBFED010895F894FFCF0B
:101CFE00FC5A836D97CD157D09B4420923C9F9327B
:101D0E0002FB11A8E821F1644E8BCCD16F3E87E81F
:101D1E00BB9B39612619B9F1201566ACC9311AA2DF
:101D2E008D8024D4078E11FE8D728ED1179EACAB92
:101D3E0033640618798EE1000573A76597E2E95AB8
:101D4E008C62FC111F43B37B08832A9420FDF8B2EA
:101D5E0069B828575A6D72300000000023018C00BC
:101D6E00BB006A01EC00CA00DE0000000000E304C4
:101D7E007B048702486F6C6420746865206361720F
:101D8E0074726964676520746167206F766572206E
:101D9E00746865207265616465722E2E000D0A00EE
:101DAE005549443A0025303258004B45593A0050B7
:061DBE0041434B3A000016
:00000001FF
