:100000000C94F6000C941E010C941E010C941E011D
:100010000C941E010C941E010C941E010C941E01E4
:100020000C941E010C941E010C941E010C941E01D4
:100030000C941E010C941E010C941E010C941E01C4
:100040000C9425050C941E010C9479030C94530315
:100050000C941E010C941E010C941E010C941E01A4
:100060000C941E010C941E010000000024002700C7
:100070002A000000000023002600290004040404D4
:100080000404040402020202020203030303030342
:10009000010204081020408001020408102001021F
:1000A00004081020000000080002010000030407FB
:1000B000000000000000000057726974696E67203C
:1000C000506173733A0057726974696E67205061AA
:1000D000636B3A0050726F74656374696E67205386
:1000E000746F726167652E2E00456E61626C696E79
:1000F000672057726974652D50726F7465637469F7
:100100006F6E2E2E00040103A00C05340300FE06C2
:1001100000000000070000000009003534540CD234
:10012000002D000D544847420E303333380F000085
:100130000000100000000011340000001200000058
:10014000001300000000486F6C64206E6577207417
:100150006167206F766572207265616465722E2E0C
:1001600000FC5A836D97CD157D09B4420923C9F966
:100170003202FB11A8E821F1644E8BCCD16F3E878F
:10018000E8BB9B39612619B9F1201566ACC9311A53
:10019000A28D8024D4078E11FE8D728ED1179EAC55
:1001A000AB33640618798EE1000573A76597E2E921
:1001B0005A8C62FC111F43B37B08832A9420FDF8FC
:1001C000B269B828575A6D7230203A200031015771
:1001D0000134013E0146014E015D0165016F0100E0
:1001E000000000250028002B0000540A11241FBE27
:1001F000CFEFD4E0DEBFCDBF11E0A0E0B1E0EEEE86
:10020000FBE102C005900D92AC37B107D9F722E0AF
:10021000ACE7B1E001C01D92AF33B207E1F710E0E7
:10022000C6EFD0E004C02197FE010E94EA0DC53F51
:10023000D107C9F70E94920A0C94F50D0C940000A6
:10024000CF92DF92EF92FF920F931F93CF93DF93A2
:100250006C017A018B01C0E0D0E0CE15DF0589F09A
:10026000D8016D918D01D601ED91FC910190F08145
:10027000E02DC6010995892B11F47E0102C021965B
:10028000ECCFC701DF91CF911F910F91FF90EF90BD
:10029000DF90CF900895089580E090E008958CE776
:1002A00091E00E94DC0321E0892B09F420E0822FF9
:1002B00008950E94F00DEF92FF920F931F93CF933A
:1002C000DF93EC0181E0888F9B8D8C8D981305C0A6
:1002D000E889F989808185FD24C0F62E0B8D10E018
:1002E0000F5F1F4F0F731127E02E8C8DE8120CC08B
:1002F0000FB607FCFACFE889F989808185FFF5CF31
:10030000CE010E943504F1CF8B8DFE01E80FF11D67
:10031000E35AFF4FF0820B8FEA89FB89808180626C
:1003200007C0EE89FF896083E889F989808180644C
:10033000808381E090E0DF91CF911F910F91FF903A
:10034000EF900895CF93DF93EC01888D8823C9F057
:10035000EA89FB89808185FD05C0A889B9898C91CE
:1003600086FD0FC00FB607FCF5CF808185FFF2CF69
:10037000A889B9898C9185FFEDCFCE010E94350403
:10038000E7CFDF91CF910895009769F0FC010190CC
:100390000020E9F73197AF01481B590BBC018CE7EE
:1003A00091E00C94200180E090E00895CF92DF92DC
:1003B000EF92FF920F931F93CF93DF9300D0CDB7AF
:1003C000DEB78C01F62EFC018289938949835A831A
:1003D0000E94770560E0F80186850E947F0482E133
:1003E0000E9470054981E42EC42E5A81D52E8C2D91
:1003F0008E198F1530F4F60181916F010E947005FE
:10040000F6CF61E0F80186850E947F040F900F907F
:10041000DF91CF911F910F91FF90EF90DF90CF90E0
:100420000C946F054F925F926F927F928F929F9282
:10043000AF92BF92CF92DF92EF92FF920F931F93F2
:10044000CF93DF9300D0CDB7DEB74C012B01D42E74
:100450003901E114F10419F0F701408101C040E0D5
:10046000B42EF0E1CF9EB00C112440E062E0C40154
:100470000E9498054FE768E0C4010E94980540E893
:1004800064E1C4010E949805A2016D2DC4010E947F
:10049000D6014B2D6AE1C4010E9498054CE062E050
:1004A000C4010E9498056AE1C4010E947A05482FA0
:1004B00040686AE1C4010E94980580ED482E87E0FB
:1004C000582E68E0C4010E947A05982F907341F479
:1004D00080FD04C081E0481A510899F783E0A1C06B
:1004E0006CE0C4010E947A05D82E837109F098C08F
:1004F0006114710409F45AC00115110509F456C0BC
:1005000064E1C4010E947A05B82EF80180818B1540
:1005100008F480C0B082BB20F1F1F4018289938994
:100520000E94770560E0F40186850E947F0482E9DD
:100530000E947005CC20A1F08FEF90E02C0101C04B
:10054000440CCA94EAF782E90E9470058421409421
:10055000F3019081492284298083CC24C39401C073
:10056000C12CBA944C2C512C460C571CCB1438F48B
:1005700082E90E947005F2018083C394F3CF80E08A
:100580000E947005F201808361E0F40186850E947B
:100590007F040E946F0568E1C4010E947A0587709C
:1005A000E114F10421F0F701808301C080E0D3FC65
:1005B00033C06114710491F10115110579F1AA207C
:1005C00069F1F8014081413019F4843019F420C0F8
:1005D000423010F487E025C08111FCCF42509E01CB
:1005E0002F5F3F4FB301C4010E942706811119C03C
:1005F000F8018081680E711CF30132979081898126
:100600009813E8CF319690818A819813E3CF06C082
:100610008FEF07C084E005C082E003C080E001C026
:1006200081E00F900F90DF91CF911F910F91FF907C
:10063000EF90DF90CF90BF90AF909F908F907F9082
:100640006F905F904F9008950F931F93CF93DF9318
:100650008C01C0E0D0E0F801EC0FFD1F649166232F
:1006600071F0E0917C01F0917D010190F081E02D2D
:100670008CE791E00995892B11F02196ECCFCE0102
:10068000DF91CF911F910F910895CF93DF930E9437
:100690002403EC0184E291E00E94C4018C0F9D1FB1
:1006A000DF91CF9108951F920F920FB60F921124F0
:1006B0002F933F934F935F936F937F938F939F936A
:1006C000AF93BF93EF93FF938CE791E00E943504C3
:1006D000FF91EF91BF91AF919F918F917F916F911A
:1006E0005F914F913F912F910F900FBE0F901F90F0
:1006F00018951F920F920FB60F9211242F938F937C
:100700009F93EF93FF93E0918C01F0918D01808195
:10071000E0919201F091930182FD12C0908180914D
:1007200095018F5F8F7320919601821751F0E091B0
:100730009501F0E0E458FE4F958F8093950101C03C
:100740008081FF91EF919F918F912F910F900FBE1C
:100750000F901F901895FC01538D448D252F30E08C
:10076000842F90E0821B930B541710F0CF960895BE
:1007700001970895FC01918D828D981761F0828D0B
:10078000DF01A80FB11D5D968C91928D9F5F9F73C5
:10079000928F90E008958FEF9FEF0895FC01918D67
:1007A000828D981731F0828DE80FF11D858D90E0D4
:1007B00008958FEF9FEF0895FC01918D228D892F71
:1007C00090E0805C9F4F821B91098F739927089559
:1007D00080E090E0892B29F00E944F0181110C9458
:1007E000000008953FB7F89480913B0290913C023D
:1007F000A0913D02B0913E0226B5A89B05C02F3FB7
:1008000019F00196A11DB11D3FBFBA2FA92F982F36
:100810008827820F911DA11DB11DBC01CD0142E0B1
:10082000660F771F881F991F4A95D1F70895DC013D
:10083000ED91FD91BD010190F081E02D40E0099521
:1008400091E0811190E0892F089544E050E0BC01CF
:1008500082E392E00E94AA0D60913202709133020D
:1008600080913402909135020895FC01848DDF015E
:10087000A80FB11DA35ABF4F2C91848D90E0019613
:100880008F739927848FA689B7892C93A089B18902
:100890008C9180648C93938D848D981306C002880C
:1008A000F389E02D80818F7D80830895833081F0EE
:1008B00028F4813099F08230A1F008958730A9F0B2
:1008C0008830B9F08430D1F4809180008F7D03C0EE
:1008D000809180008F7780938000089584B58F7712
:1008E00002C084B58F7D84BD08958091B0008F775C
:1008F00003C08091B0008F7D8093B00008951F9356
:10090000CF93DF93282F30E0F901EC55FF4F84910E
:10091000F901E057FF4FD491F901E458FF4FC4911A
:10092000CC23C9F0162F81110E945604EC2FF0E061
:10093000EE0FFF1FE152FE4FA591B4918FB7F894CF
:10094000111105C09C91ED2FE095E92302C0EC91B7
:10095000ED2BEC938FBFDF91CF911F910895CF9333
:10096000DF9390E0FC01E057FF4F2491FC01E45835
:10097000FF4F8491882361F190E0880F991FFC015B
:10098000E859FF4FC591D491FC01E152FE4FA5916A
:10099000B491611109C09FB7F89488812095822392
:1009A0008883EC912E230BC0623061F49FB7F894DA
:1009B0003881822F809583238883EC912E2B2C9372
:1009C0009FBF06C08FB7F894E8812E2B28838FBF76
:1009D000DF91CF9108958F929F92AF92BF92CF9265
:1009E000DF92EF92FF926B017C010E94F2034B01B8
:1009F0005C01C114D104E104F104F1F00E94F2039E
:100A0000DC01CB0188199909AA09BB09883E9340EA
:100A1000A105B10570F321E0C21AD108E108F1087F
:100A200088EE880E83E0981EA11CB11CC114D1046D
:100A3000E104F10419F7DDCFFF90EF90DF90CF9044
:100A4000BF90AF909F908F9008951F920F920FB616
:100A50000F9211242F933F938F939F93AF93BF9344
:100A60008091370290913802A0913902B0913A02F8
:100A70003091360223E0230F2D3720F40196A11D7B
:100A8000B11D05C026E8230F0296A11DB11D2093BC
:100A900036028093370290933802A0933902B093C4
:100AA0003A0280913B0290913C02A0913D02B091AC
:100AB0003E020196A11DB11D80933B0290933C0222
:100AC000A0933D02B0933E02BF91AF919F918F9151
:100AD0003F912F910F900FBE0F901F901895089582
:100AE0008EBD00000DB407FEFDCF8EB508958CBD00
:100AF0009DBD08951F93CF93DF93EC01162F8A8934
:100B00009B890E94770560E08E850E947F04812F7B
:100B100080680E94700580E00E947005182F61E0D7
:100B20008E850E947F04812FDF91CF911F910895C0
:100B3000EF92FF921F93CF93DF931F92CDB7DEB753
:100B40007C01162FFC018289938949830E947705D5
:100B500060E0F70186850E947F04812F0E94700566
:100B60004981842F0E94700561E0F70186850F900E
:100B7000DF91CF911F91FF90EF900C947F048F92A3
:100B80009F92AF92CF92EF92FF920F931F93CF93CA
:100B9000DF9300D000D01F92CDB7DEB74C0182E0CA
:100BA0008D8340E064E2C4010E94980540E066E263
:100BB000C4010E94980546E268E4C4010E949805B9
:100BC00086E28C838D81823040F16CE1C4010E9409
:100BD0007A05482F4F776CE1C4010E94980587E0A1
:100BE0008B83A12CC12CCE0103967C018E010B5F5F
:100BF0001F4F9E012F5F3F4F41E0BE016C5F7F4F53
:100C0000C4010E94120281110BC08D81823039F41F
:100C100081E09B81911104C008C084E001C081E0A3
:100C200091E0823019F090E001C091E0892F0F909F
:100C30000F900F900F900F90DF91CF911F910F9118
:100C4000FF90EF90CF90AF909F908F900895CF92AC
:100C5000DF92EF92FF920F931F93CF93DF93EC01FC
:100C60006B01142F790140E062E00E94980544E096
:100C70006AE0CE010E94980540E864E1CE010E943E
:100C80009805A601612FCE010E94D60143E062E0E3
:100C9000CE010E94980508E813E16AE0CE010E94A7
:100CA0007A0582FF13C040E062E0CE010E94980501
:100CB00064E4CE010E947A05F701808362E4CE01EC
:100CC0000E947A05F701818380E004C00150110978
:100CD00021F783E0DF91CF911F910F91FF90EF906B
:100CE000DF90CF9008952F923F924F925F926F9234
:100CF0007F928F929F92AF92BF92CF92DF92EF92AC
:100D0000FF920F931F93CF93DF93CDB7DEB72D974D
:100D10000FB6F894DEBF0FBECDBF413508F00EC14F
:100D2000342E3B014C016CE10E947A05482F4F772D
:100D30006CE1C4010E949805BB24B39442E0B41650
:100D400091F083E0B816E1F091E0B912FBC083E9BD
:100D500089833320D1F081E0F3019081953008F44C
:100D600080E0D12C17C085E98983332081F081E0B0
:100D7000F3019081983008F480E0A3E0DA2E0AC0F5
:100D800087E98983F6E0DF2E04C0D12C02C0E3E0BE
:100D9000DE2E80E0532DF8EFDF9E500D112457FD1D
:100DA00050E0882321F098E89B8343E001C042E0B3
:100DB00021E0952F977009F420E0952F9595959552
:100DC0009595290F21F4882311F1585F20C08111D6
:100DD00002C094E001C093E0291708F4922F20E0AC
:100DE00030E06D2D70E0E42FE20FA1E0B0E0AC0F39
:100DF000BD1FAE0FB11DF901E60FF71FE60DF71D80
:100E0000E181EC932F5F3F4F291768F3DCCF73E04C
:100E1000272E5032FCF040E74A839C818B81892742
:100E20009D8189279E8189278F839E01285F3F4F5F
:100E300047E0BE016F5F7F4FC4015D870E942706B8
:100E40005D858111CBC01B862A86CE0107962C01B9
:100E500079E01EC0952F97709B87252F25952595A6
:100E6000259582E0820F392FE0E18E9F300D11240D
:100E70003A8371E0911101C070E0780F44244394EB
:100E8000512C4C0E5D1E480E511C87E0821B8A8738
:100E9000CB844C2D4295407F4C0D6AE1C4015D87A7
:100EA0007C870E949805A12CCE010B967C018E01B7
:100EB000065F1F4F92017C85472FBE016F5F7F4FFA
:100EC000C4010E9412025D85823091F56CE1C4017B
:100ED0000E947A055D8585FD33C08F7109F480E23B
:100EE00090E0252F052E000C330B2817390754F5F9
:100EF00001979C012770332743E0959587954A9584
:100F0000E1F78F5F91E02115310509F490E0890F39
:100F1000E1E0F0E0EC0FFD1FE80FF11D81E090E053
:100F200001C0880F2A95EAF79081892B808371CFC1
:100F3000811154C0503244F450E26DCF86E04EC06F
:100F400082E04CC085E04AC08B81883809F043C0FC
:100F500033E023E080E090E06D2D70E0FC01E60FCF
:100F6000F71FE60DF71D432F480FA1E0B0E0AC0FCF
:100F7000BD1FA40FB11D4C9141830196821770F3E0
:100F80008A85833021F58B85811121C09E012D5FDB
:100F90003F4F41E0B201C4010E94270681111EC0EB
:100FA0009B81F2018181981314C09C8182819813E6
:100FB00010C0808182FF02C0B394C0CEF30183874A
:100FC0008B2D880FB80EB394B08280E007C081E00B
:100FD00005C087E003C032E024E0BCCF2D960FB6F9
:100FE000F894DEBF0FBECDBFDF91CF911F910F915F
:100FF000FF90EF90DF90CF90BF90AF909F908F9039
:101000007F906F905F904F903F902F900895CF9377
:10101000C82F8CE191E00E94C4016C2F70E0660F34
:10102000771F63537E4F42E050E080E392E00E94DE
:10103000AA0D80913002909131020E94C40184E295
:1010400091E0CF910C94C401AF92BF92CF92DF9206
:10105000EF92FF920F931F93CF93DF93CDB7DEB73D
:10106000A9970FB6F894DEBF0FBECDBFB82E8B0187
:1010700089E192E00E94BF058823D1F389E192E0E3
:101080000E9417048823A1F387E291E00E94C40123
:101090008EE291E00E94C401CB2CD12CE12CF12CEA
:1010A00019A2CE018196B701A6014F705527662778
:1010B000772724E0F694E794D794C7942A95D1F73C
:1010C00001974A3051056105710510F4405D01C07A
:1010D000495CFC014083C114D104E104F10419F717
:1010E0000E94C40189EC91E00E94240301151105BE
:1010F00009F449C082EA8AA3BBA2F80180819181E8
:10110000A281B3818CA39DA3AEA3BFA386E0FE0101
:10111000B296DE01119601900D928A95E1F79E013B
:10112000295F3F4F46E0BE016F5F7F4F89E192E04C
:101130000E942706811123C082E189A718A6A12C4D
:10114000C12CCE0188967C018E01075D1F4F9E0148
:101150002F5F3F4F48E0B90189E192E00E941202FF
:1011600081110DC089A5813061F488A511E084301A
:1011700059F489818A3009F410E0119505C0182FBF
:1011800003C011E001C016E061E070E080E090E093
:101190000E94EB04812F0E9407081123A1F060E058
:1011A00082E00E947F0468EC70E080E090E00E94A2
:1011B000EB0461E082E00E947F0468EC70E080E074
:1011C00090E00E94EB0481E0111101C080E0A9963B
:1011D0000FB6F894DEBF0FBECDBFDF91CF911F9148
:1011E0000F91FF90EF90DF90CF90BF90AF90089558
:1011F0002F923F924F925F926F927F928F929F9227
:10120000AF92BF92CF92DF92EF92FF920F931F9314
:10121000CF93DF93CDB7DEB72C970FB6F894DEBF30
:101220000FBECDBF9C878B87DC0113968C911397E3
:1012300012964C901297512C612C712C320155242E
:101240004424782A8C91482A11968C91582A81E658
:1012500091E00E942504460E571E681E791EEB85FC
:10126000FC858781C680D12CE12CF12C7601DD2410
:10127000CC24F82A8481C82A8581D82A85E691E081
:101280000E942504C60ED71EE81EF91E1A8619866E
:101290004C245D246E247F24F601EF71FF2700E2C9
:1012A00010E00E1B1F0B9201A30160E070E080E0D4
:1012B00090E00E94CE0D29833A834B835C83920198
:1012C000A30160E070E080E090E00E2F0E94B30D7B
:1012D00019012A0189809A80AB80BC8082289328DA
:1012E000A428B52889859A8587599E4F0E94250490
:1012F00024013501460E571E681E791EC424D524CC
:10130000E624F72446015701F201EF71FF2700E2BE
:1013100010E00E1B1F0B9601A50160E070E080E05D
:1013200090E00E94CE0D29833A834B835C83960123
:10133000A50160E070E080E090E00E2F0E94B30D08
:1013400049015A0189819A81AB81BC81882A992AF5
:10135000AA2ABB2A89859A8583599E4F0E94250413
:1013600075016401C60ED71EE81EF91ED701C6011D
:1013700084259525A625B7251C012D01F601EF71C1
:10138000FF2700E210E00E1B1F0B9C01A20160E092
:1013900070E080E090E00E94CE0D29833A834B8379
:1013A0005C839101A20160E070E080E090E00E2F8C
:1013B0000E94B30D29013A0189819A81AB81BC81D8
:1013C000482A592A6A2A7B2A29843A8490E1290EDC
:1013D000311CC1018F599E4F0E942504460E571E95
:1013E000681E791EC424D524E624F724460157013B
:1013F000F201EF71FF2700E210E00E1B1F0B9601B8
:10140000A50160E070E080E090E00E94CE0D2983AD
:101410003A834B835C839601A50160E070E080E035
:1014200090E00E2F0E94B30D49015A0189819A81E3
:10143000AB81BC81882A992AAA2ABB2A89859A85E8
:101440008B589E4F0E94250475016401C60ED71E5D
:10145000E81EF91E3A862986D101A036B10509F0A9
:1014600017CFEB85FC854082518262827382C482F1
:10147000D582E682F7822C960FB6F894DEBF0FBEB7
:10148000CDBFDF91CF911F910F91FF90EF90DF9033
:10149000CF90BF90AF909F908F907F906F905F9014
:1014A0004F903F902F900895ECE7F1E01382128265
:1014B00088EE93E0A0E0B0E084839583A683B783B1
:1014C00084E091E09183808385EC90E09587848728
:1014D00084EC90E09787868780EC90E0918B808BFE
:1014E00081EC90E0938B828B82EC90E0958B848BE7
:1014F00086EC90E0978B868B118E128E138E148E55
:10150000E9E1F2E086E191E0918380838AE08687D9
:1015100089E087878FE292E0918B808B83E5828BD5
:10152000138A0895CF93DF93CDB7DEB76B970FB6CD
:10153000F894DEBF0FBECDBF789484B5826084BDC1
:1015400084B5816084BD85B5826085BD85B58160C7
:1015500085BD80916E00816080936E001092810045
:101560008091810082608093810080918100816000
:1015700080938100809180008160809380008091C1
:10158000B10084608093B1008091B000816080934D
:10159000B00080917A00846080937A0080917A0014
:1015A000826080937A0080917A00816080937A00D3
:1015B00080917A00806880937A001092C100E09157
:1015C0008C01F0918D0182E08083E0918801F0919F
:1015D00089011082E0918A01F0918B0180E1808382
:1015E00010929401E0919001F091910186E0808346
:1015F000E0918E01F0918F01808180618083E09184
:101600008E01F0918F01808188608083E0918E014E
:10161000F0918F01808180688083E0918E01F0914C
:101620008F0180818F7D80831FB7F89480912D0278
:10163000811127C0E6E8F0E08491EAE9F0E09491B6
:10164000E82FF0E0EE0FFF1FE859FF4FA591B4918E
:10165000EC91E92321F461E08AE00E947F0461E0DB
:101660008AE00E94AF048CB580618CBD8CB580642B
:101670008CBD61E08DE00E94AF0461E08BE00E94D0
:10168000AF0480912D028F5F80932D021FBF61E018
:10169000809127020E94AF0461E0809127020E949E
:1016A0007F04809128028F3F69F44FE062E089E176
:1016B00092E00E94980562E370E080E090E00E9472
:1016C000EB0425C060E00E94AF042091280230E0C6
:1016D000F901EC55FF4F8491F901E057FF4F049158
:1016E000F901E458FF4F1491112309F422C281112A
:1016F0000E945604E12FF0E0EE0FFF1FEE58FF4F5F
:10170000A591B491EC91E02309F413C2CECF62E02D
:1017100089E192E00E947A0584FDF9CF40E064E21D
:1017200089E192E00E94980540E066E289E192E05A
:101730000E94980546E268E489E192E00E949805DB
:1017400040E864E589E192E00E94980549EA66E58F
:1017500089E192E00E94980543E068E589E192E022
:101760000E94980548EE6AE589E192E00E9498059A
:1017700040E46AE289E192E00E9498054DE362E26A
:1017800089E192E00E94980568E289E192E00E9476
:101790007A05982F9370933039F0482F436068E2B0
:1017A00089E192E00E94980561E082E00E94AF0426
:1017B000CE0101964C013E0199E0690E711C61E079
:1017C00082E00E947F0486E491E00E94450389E163
:1017D00092E00E94BF058823D1F389E192E00E9444
:1017E00017048823A1F364E670E080E090E00E9493
:1017F000EB049091210280911E02890F877098E07E
:10180000F40111929A95E9F720E030E090E0F901B7
:10181000E80FF91FE770FF27E80DF91DD901A75E52
:10182000BD4F13964C9140832F5F3F4F27303105BA
:1018300071F7C4010E94F808F40100E010E0819102
:101840009DE0899F000D111D1124E615F705B9F7DC
:1018500090911F0280911D02890F90912102890FA2
:10186000877098E0F40111929A95E9F720E030E052
:1018700090E0F901E80FF91FE770FF27E80DF91D67
:10188000D901A75EBD4F13964C9140832F5F3F4F08
:101890002730310571F7C4010E94F8089B818981C6
:1018A000890F9D81890F9F81890F837090E0E3E00C
:1018B000F0E0EC0FFD1FE80FF91F4081E2E0F0E0DF
:1018C000EC0FFD1FE80FF91F3081F401E80FF91F3D
:1018D0002081E4E0F0E0EC0FFD1FE80FF91F8081AC
:1018E0008F8B488F398F2A8F25E0E22E21E0F22E50
:1018F00086E4E81681E0F806E9F0B7016F5F7F4FF4
:1019000044E050E0CE0143960E94AA0D41E050E031
:10191000B7018EE292E00E94AA0DBE016D5E7F4F7C
:1019200080912E020E942408F5E0EF0EF11C88231E
:10193000F9F2F2C08AE58B8B80E5F82EFC8A1E8ACC
:1019400090E4E92EED8ABE016D5E7F4F88E00E9433
:1019500024088111E1C0EB8A8DE08C8B83E08D8BB4
:101960001E8ABE016D5E7F4F84E10E9424088111B2
:10197000D3C088E08B8B8FE18C8B81E38D8B84E5EA
:101980008E8BBE016D5E7F4F85E10E942408811120
:10199000C3C0FB8A81EB8C8B80EE8D8B8EEC8E8BA3
:1019A000BE016D5E7F4F86E10E9424088111B4C0A4
:1019B00082E58B8B87EE8C8B8FE48D8B86E78E8B0D
:1019C000BE016D5E7F4F87E10E9424088111A4C093
:1019D00095E50927192709831A831B821C8286EC47
:1019E00090E00E944503B4018CE20E94240881111A
:1019F0000AC088EB90E00E944503BE01695E7F4FFC
:101A00008BE20E94240889EE90E00E94450382E167
:101A10008B8F80E389838AE28A839E012D5F3F4F0B
:101A200042E0B40189E192E00E94270681110FC0D3
:101A3000AA24A394C12CE12CF12C8E01055E1F4F2A
:101A4000940144E0B40189E192E00E941202182F4F
:101A50000E940708111160C08981887780688B8B8C
:101A60001C8A1D8A1E8ABE016D5E7F4F8AE20E941B
:101A70002408811151C084ED90E00E94450382E169
:101A80008B8F80E3898389E28A839E012D5F3F4F9C
:101A900042E0B40189E192E00E94270681110FC063
:101AA000AA24A394C12CE12CF12C8E01055E1F4FBA
:101AB000940144E0B40189E192E00E941202182FDF
:101AC0000E940708111128C089818B8B1C8A8A818A
:101AD0008D8B88E08E8BBE016D5E7F4F89E20E9408
:101AE0002408811119C003E010E060E082E00E9448
:101AF0007F0468EC70E080E090E00E94EB0461E01D
:101B000082E00E947F0468EC70E080E090E00E9438
:101B1000EB040150110949F760E082E00E947F0464
:101B200068EB7BE080E090E00E94EB040E94E80319
:101B300046CE61E0809128020E94AF0461E080916E
:101B400028020E947F0462E370E080E090E00E943F
:101B5000EB04E4CDFB01DC0102C005900D92415085
:101B60005040D8F708950F93083090F0982F872FA2
:101B7000762F652F542F432F322F22270850F4CF72
:101B8000220F331F441F551F661F771F881F991F81
:101B90000A95B2F70F91089597FB10F81694000874
:101BA0000F93083098F00850232F342F452F562FCD
:101BB000672F782F892F902DF4CF059497958795CF
:101BC0007795679557954795379527950A95AAF77D
:101BD0000F910895EE0FFF1F0590F491E02D0994E9
:0E1BE00081E090E0F8940C94F50DF894FFCF9E
:101BEE00000000005B012001AB03A201DC03BA037D
:101BFE00CE03000000007306BF0517045354415472
:101C0E0055535F000D0A00577269746520003078D5
:101C1E00004F4B00434F4C4C4953494F4E005449D3
:101C2E004D454F5554004E4F5F524F4F4D00494E4C
:101C3E005445524E414C5F4552524F5200494E56FA
:101C4E00414C4944004352435F57524F4E47004D5B
:0C1C5E0049464152455F4E41434B000097
:103800000C94341C0C94511C0C94511C0C94511CA1
:103810000C94511C0C94511C0C94511C0C94511C74
:103820000C94511C0C94511C0C94511C0C94511C64
:103830000C94511C0C94511C0C94511C0C94511C54
:103840000C94511C0C94511C0C94511C0C94511C44
:103850000C94511C0C94511C0C94511C0C94511C34
:103860000C94511C0C94511C11241FBECFEFD4E0BA
:10387000DEBFCDBF11E0A0E0B1E0E4EAFEE302C0AC
:1038800005900D92A230B107D9F712E0A2E0B1E0A5
:1038900001C01D92AD30B107E1F70E94ED1C0C9400
:1038A000511F0C94001C482F10920A0280E08417CC
:1038B000E0F4582F2D9A28EE33E080E991E001974B
:1038C000F1F721503040C9F72D9828EE33E080E918
:1038D00091E00197F1F721503040C9F7852F8F5FB4
:1038E000582F841738F380930A020895EF92FF92BD
:1038F0000F931F93EE24FF2487018091C00087FD62
:1039000017C00894E11CF11C011D111D81E0E8168F
:1039100082E1F8068AE7080780E0180770F3E09173
:103920000201F091030109958091C00087FFE9CF62
:103930008091C600992787FD90951F910F91FF9068
:10394000EF900895982F8091C00085FFFCCF909351
:10395000C60008950E94761C803271F080910401A7
:103960008F5F80930401853009F00895E091020192
:10397000F09103010995089584E10E94A21C80E161
:103980000E94A21C0895CF93C82F0E94761C8032FB
:1039900041F0809104018F5F80930401853081F4B0
:1039A0000AC084E10E94A21C8C2F0E94A21C80E10C
:1039B0000E94A21C05C0E0910201F091030109954B
:1039C000CF910895CF93C82FC150CF3F21F00E94CF
:1039D000761CC150E0F7CF910895CFEFD4E0DEBF61
:1039E000CDBF000083E38093C4001092C50088E13E
:1039F0008093C10086E08093C2005098589A259A1F
:103A000083E00E94531C0E94761C8033B1F1813305
:103A1000B9F1803409F455C0813409F45BC08234B3
:103A200009F46DC0853409F470C0803531F18235F8
:103A300021F1813511F1853509F46BC0863509F422
:103A400073C0843609F47AC0843709F4CEC0853750
:103A500009F429C1863709F44AC0809104018F5FB7
:103A600080930401853079F6E0910201F091030121
:103A700009950E94761C803351F60E94AA1CC3CF80
:103A80000E94761CC82F803241F784E10E94A21C5C
:103A900081E40E94A21C86E50E94A21C82E50E948D
:103AA000A21C8C2F0E94A21C89E40E94A21C83E508
:103AB0000E94A21C80E50E94A21C80E10E94A21C20
:103AC000A2CF0E94761C8638C0F20E94761C0E940B
:103AD000AA1C99CF0E94761C803809F486C18138CF
:103AE00009F487C1823809F488C1883921F080E05F
:103AF0000E94C31C88CF83E00E94C31C84CF84E152
:103B00000E94E21C0E94AA1C7ECF85E00E94E21C5B
:103B1000F9CF0E94761C809306010E94761C809348
:103B200007010E94AA1C6FCF0E94761C803309F403
:103B3000CAC083E00E94E21C80E0DACF0E94761CBB
:103B4000809309020E94761C8093080280910C02E7
:103B50008E7F80930C020E94761C853409F4C4C0C9
:103B600000E010E0809108029091090218161906F1
:103B700070F4C8E0D1E00E94761C89930F5F1F4F5C
:103B8000809108029091090208171907A0F30E947A
:103B9000761C803209F061CF80910C0280FFAEC0AC
:103BA000E0910601F0910701EE0FFF1F00E010E029
:103BB00020910802309109021216130680F4A8E041
:103BC000B1E0F999FECFF2BDE1BD8D9180BDFA9AC9
:103BD000F99A31960F5F1F4F0217130790F3F09376
:103BE0000701E093060184E166CF0E94761C809372
:103BF00009020E94761C8093080280910601909130
:103C00000701880F991F90930701809306010E9476
:103C1000761C853409F46EC080910C028E7F8093EF
:103C20000C020E94761C803209F0EDCE84E10E94E5
:103C3000A21C00E010E02091080230910902121647
:103C4000130608F03ACFE0910601F0910701809148
:103C50000C0280FF1FC0F999FECFF2BDE1BDF89ABA
:103C600080B50E94A21CE0910601F09107013196F7
:103C7000F0930701E09306012091080230910902B8
:103C80000F5F1F4F0217130708F017CF80910C0228
:103C900080FDE1CF869580FFB4C03196F093070197
:103CA000E0930601EDCF0E94761C803209F0D5CE5C
:103CB00084E10E94A21C8EE10E94A21C84E90E9461
:103CC000A21C86E0F8CE0E94761C0E94761CC82FAB
:103CD0000E94761CCC2309F47CC0C13009F47DC05D
:103CE00086E00E94C31C8FCE80910C02816080937D
:103CF0000C0236CF80910C02816091CF8091070138
:103D000087FD6FC010920B02809106019091070110
:103D1000880F991F909307018093060180910802F4
:103D200080FF09C08091080290910902019690934A
:103D3000090280930802F894F999FECF1127E091C7
:103D40000601F0910701C8E0D1E08091080290914E
:103D50000902103091F40091570001700130D9F33D
:103D600003E000935700E89500915700017001307F
:103D7000D9F301E100935700E8950990199000915B
:103D8000570001700130D9F301E000935700E89526
:103D90001395103498F011270091570001700130ED
:103DA000D9F305E000935700E895009157000170A2
:103DB0000130D9F301E100935700E895329602975C
:103DC00009F0C7CF103011F00296E5CF112484E13D
:103DD00072CE8EE10E94C31C16CE84E90E94C31CE1
:103DE00012CE81E080930B028FCF82E00E94C31C31
:103DF0000ACE81E00E94C31C06CE80E10E94C31C53
:103E000002CE84910E94A21C2091080230910902E6
:103E1000E0910601F091070140CFCF930E94761CFC
:103E2000C82F0E94A21CC13614F0C75503C0C0336E
:103E30000CF0C0538C2F992787FD9095CF91089552
:103E40000F931F930E940D1F082F112707FD109538
:103E500002951295107F1027007F10270E940D1FDA
:103E6000800F992787FD90951F910F910895CF930B
:103E7000C82F85958595859585958A3034F0895A22
:103E8000CF70CA3034F0C95A05C0805DCF70CA30D7
:103E9000D4F7C05D0E94A21C8C2F0E94A21CCF915F
:043EA0000895FFCFB3
:023EA40080009C
:0400000300003800C1
:00000001FF