:100000000C9459010C9481010C9481010C94810190
:100010000C9481010C9481010C9481010C94810158
:100020000C9481010C9481010C9481010C94810148
:100030000C9481010C9481010C9481010C94810138
:100040000C94C9050C9481010C941D040C94F703C5
:100050000C9481010C9481010C9481010C94810118
:100060000C9481010C948101000000002400270001
:100070002A000000000023002600290004040404D4
:100080000404040402020202020203030303030342
:10009000010204081020408001020408102001021F
:1000A00004081020000000080002010000030407FB
:1000B0000000000000000000556E6B6E6F776E2030
:1000C0006572726F720041204D4946415245205081
:1000D00049434320726573706F6E6465642077696D
:1000E0007468204E414B2E00546865204352435F94
:1000F0004120646F6573206E6F74206D6174636856
:100100002E00496E76616C696420617267756D6559
:100110006E742E00496E7465726E616C2065727229
:100120006F7220696E2074686520636F64652E208D
:1001300053686F756C64206E6F74206861707065B1
:100140006E2E004120627566666572206973206EAE
:100150006F742062696720656E6F7567682E005442
:10016000696D656F757420696E20636F6D6D756E56
:1001700069636174696F6E2E00436F6C6C69737391
:10018000696F6E2064657465637465642E004572E2
:10019000726F7220696E20636F6D6D756E69636139
:1001A00074696F6E2E002000203000202000200097
:1001B0002020004D49464152455F5265616428291F
:1001C000206661696C65643A200050616765202093
:1001D00030202031202032202033005265616420FD
:1001E0004661696C65642E0041757468656E74695A
:1001F0006361746564212052656164696E6720449F
:100200006174612E005041434B3A004B45593A000E
:100210005549443A00486F6C6420746865206361F6
:100220007274726964676520746167206F766572A5
:1002300020746865207265616465722E2E00FC5A18
:10024000836D97CD157D09B4420923C9F93202FBAC
:1002500011A8E821F1644E8BCCD16F3E87E8BB9B9F
:1002600039612619B9F1201566ACC9311AA28D8001
:1002700024D4078E11FE8D728ED1179EACAB3364E1
:100280000618798EE1000573A76597E2E95A8C623A
:10029000FC111F43B37B08832A9420FDF8B269B890
:1002A00028575A6D723000000000250028002B00EE
:1002B0004B0A11241FBECFEFD4E0DEBFCDBF11E04B
:1002C000A0E0B1E0E2ECF1E202C005900D92A432B0
:1002D000B107D9F721E0A4E2B1E001C01D92A53E2B
:1002E000B207E1F711E0C9E5D1E004C02197FE01B2
:1002F0000E94EF0DC835D107C9F70E94890A0C94F6
:10030000DF100C9400000F931F93CF93DF938C01A9
:10031000C0E0D0E0F801EC0FFD1F6491662371F09E
:10032000E0912401F09125010190F081E02D84E21B
:1003300091E00995892B11F02196ECCFCE01DF9148
:10034000CF911F910F910895CF92DF92EF92FF927C
:100350000F931F93CF93DF936C017A018B01C0E061
:10036000D0E0CE15DF0589F0D8016D918D01D60161
:10037000ED91FC910190F081E02DC6010995892B4A
:1003800011F47E0102C02196ECCFC701DF91CF911D
:100390001F910F91FF90EF90DF90CF9008950895F7
:1003A00080E090E0089584E291E00E94800421E0E2
:1003B000892B09F420E0822F08950E94F50DEF9219
:1003C000FF920F931F93CF93DF93EC0181E0888F0F
:1003D0009B8D8C8D981305C0E889F989808185FDF6
:1003E00024C0F62E0B8D10E00F5F1F4F0F731127E7
:1003F000E02E8C8DE8120CC00FB607FCFACFE8890E
:10040000F989808185FFF5CFCE010E94D904F1CF13
:100410008B8DFE01E80FF11DE35AFF4FF0820B8F29
:10042000EA89FB898081806207C0EE89FF89608349
:10043000E889F98980818064808381E090E0DF91A0
:10044000CF911F910F91FF90EF900895CF93DF937D
:10045000EC01888D8823C9F0EA89FB89808185FDBC
:1004600005C0A889B9898C9186FD0FC00FB607FC1D
:10047000F5CF808185FFF2CFA889B9898C9185FF5E
:10048000EDCFCE010E94D904E7CFDF91CF9108953F
:10049000009769F0FC0101900020E9F73197AF0166
:1004A000481B590BBC0184E291E00C94A40180E04C
:1004B00090E00895CF93DF930E948301EC018CE1DB
:1004C00091E00E9448028C0F9D1FDF91CF9108950B
:1004D0008F929F92AF92BF920F931F93CF93DF9310
:1004E000CDB7DEB7A1970FB6F894DEBF0FBECDBF74
:1004F00019A2423008F44AE08E010F5D1F4F842E8E
:10050000912CA12CB12CA50194010E94960DE62FEF
:10051000B901CA0101501109EA3014F4E05D01C0CB
:10052000E95CD801EC93232B242B252B61F7C80120
:100530000E944802A1960FB6F894DEBF0FBECDBF51
:10054000DF91CF911F910F91BF90AF909F908F90AF
:100550000895CF92DF92EF92FF920F931F93CF9364
:10056000DF9300D0CDB7DEB78C01F62EFC01828977
:10057000938949835A830E941B0660E0F8018685AF
:100580000E94230582E10E9414064981E42EC42EB4
:100590005A81D52E8C2D8E198F1530F4F60181914C
:1005A0006F010E941406F6CF61E0F80186850E9473
:1005B00023050F900F90DF91CF911F910F91FF9026
:1005C000EF90DF90CF900C9413064F925F926F9252
:1005D0007F928F929F92AF92BF92CF92DF92EF92D3
:1005E000FF920F931F93CF93DF9300D0CDB7DEB769
:1005F0004C012B01D42E3901E114F10419F0F7015B
:10060000408101C040E0B42EF0E1CF9EB00C112437
:1006100040E062E0C4010E943C064FE768E0C4018C
:100620000E943C0640E864E1C4010E943C06A2012D
:100630006D2DC4010E94A9024B2D6AE1C4010E94E4
:100640003C064CE062E0C4010E943C066AE1C40141
:100650000E941E06482F40686AE1C4010E943C06C1
:1006600080ED482E87E0582E68E0C4010E941E06E7
:10067000982F907341F480FD04C081E0481A51081E
:1006800099F783E0A1C06CE0C4010E941E06D82E39
:10069000837109F098C06114710409F45AC00115FE
:1006A000110509F456C064E1C4010E941E06B82E6B
:1006B000F80180818B1508F480C0B082BB20F1F175
:1006C000F401828993890E941B0660E0F40186850B
:1006D0000E94230582E90E941406CC20A1F08FEF2E
:1006E00090E02C0101C0440CCA94EAF782E90E9410
:1006F000140684214094F301908149228429808347
:10070000CC24C39401C0C12CBA944C2C512C460C5F
:10071000571CCB1438F482E90E941406F20180833E
:10072000C394F3CF80E00E941406F201808361E05D
:10073000F40186850E9423050E94130668E1C40126
:100740000E941E068770E114F10421F0F7018083F6
:1007500001C080E0D3FC33C06114710491F1011534
:10076000110579F1AA2069F1F8014081413019F4AD
:10077000843019F420C0423010F487E025C0811184
:10078000FCCF42509E012F5F3F4FB301C4010E9436
:10079000CB06811119C0F8018081680E711CF3012C
:1007A0003297908189819813E8CF319690818A8120
:1007B0009813E3CF06C08FEF07C084E005C082E046
:1007C00003C080E001C081E00F900F90DF91CF91D6
:1007D0001F910F91FF90EF90DF90CF90BF90AF905F
:1007E0009F908F907F906F905F904F9008951F9291
:1007F0000F920FB60F9211242F933F934F935F9355
:100800006F937F938F939F93AF93BF93EF93FF93D8
:1008100084E291E00E94D904FF91EF91BF91AF91E2
:100820009F918F917F916F915F914F913F912F9108
:100830000F900FBE0F901F9018951F920F920FB63A
:100840000F9211242F938F939F93EF93FF93E09137
:100850003401F09135018081E0913A01F0913B0142
:1008600082FD12C0908180913D018F5F8F73209136
:100870003E01821751F0E0913D01F0E0EC5DFE4F4A
:10088000958F80933D0101C08081FF91EF919F91F1
:100890008F912F910F900FBE0F901F901895FC0114
:1008A000538D448D252F30E0842F90E0821B930BD5
:1008B000541710F0CF96089501970895FC01918D7B
:1008C000828D981761F0828DDF01A80FB11D5D96B2
:1008D0008C91928D9F5F9F73928F90E008958FEF20
:1008E0009FEF0895FC01918D828D981731F0828DD4
:1008F000E80FF11D858D90E008958FEF9FEF08952B
:10090000FC01918D228D892F90E0805C9F4F821B8E
:1009100091098F739927089580E090E0892B29F041
:100920000E94D30181110C94000008953FB7F89400
:100930008091E1019091E201A091E301B091E40185
:1009400026B5A89B05C02F3F19F00196A11DB11D2A
:100950003FBFBA2FA92F982F8827820F911DA11D65
:10096000B11DBC01CD0142E0660F771F881F991FA2
:100970004A95D1F70895DC01ED91FD91BD010190FB
:10098000F081E02D40E0099591E0811190E0892F00
:10099000089544E050E0BC0188ED91E00E948D0D87
:1009A0006091D8017091D9018091DA019091DB01B9
:1009B0000895FC01848DDF01A80FB11DA35ABF4F1C
:1009C0002C91848D90E001968F739927848FA6894E
:1009D000B7892C93A089B1898C9180648C93938D75
:1009E000848D981306C00288F389E02D80818F7D65
:1009F00080830895833081F028F4813099F082302B
:100A0000A1F008958730A9F08830B9F08430D1F48E
:100A1000809180008F7D03C0809180008F778093CC
:100A20008000089584B58F7702C084B58F7D84BD22
:100A300008958091B0008F7703C08091B0008F7DC2
:100A40008093B00008951F93CF93DF93282F30E059
:100A5000F901EC55FF4F8491F901E057FF4FD49114
:100A6000F901E458FF4FC491CC23C9F0162F81112E
:100A70000E94FA04EC2FF0E0EE0FFF1FEA55FD4F45
:100A8000A591B4918FB7F894111105C09C91ED2FE9
:100A9000E095E92302C0EC91ED2BEC938FBFDF9141
:100AA000CF911F910895CF93DF9390E0FC01E05721
:100AB000FF4F2491FC01E458FF4F8491882361F19A
:100AC00090E0880F991FFC01E859FF4FC591D49120
:100AD000FC01EA55FD4FA591B491611109C09FB782
:100AE000F8948881209582238883EC912E230BC073
:100AF000623061F49FB7F8943881822F8095832308
:100B00008883EC912E2B2C939FBF06C08FB7F8944F
:100B1000E8812E2B28838FBFDF91CF9108958F928C
:100B20009F92AF92BF92CF92DF92EF92FF926B01B2
:100B30007C010E9496044B015C01C114D104E104C4
:100B4000F104F1F00E949604DC01CB0188199909A7
:100B5000AA09BB09883E9340A105B10570F321E0C5
:100B6000C21AD108E108F10888EE880E83E0981EC9
:100B7000A11CB11CC114D104E104F10419F7DDCFAB
:100B8000FF90EF90DF90CF90BF90AF909F908F90AD
:100B900008951F920F920FB60F9211242F933F9337
:100BA0008F939F93AF93BF938091DD019091DE016E
:100BB000A091DF01B091E0013091DC0123E0230F2F
:100BC0002D3720F40196A11DB11D05C026E8230F85
:100BD0000296A11DB11D2093DC018093DD0190934D
:100BE000DE01A093DF01B093E0018091E1019091DB
:100BF000E201A091E301B091E4010196A11DB11DB4
:100C00008093E1019093E201A093E301B093E401AA
:100C1000BF91AF919F918F913F912F910F900FBEF8
:100C20000F901F90189508958EBD00000DB407FE1B
:100C3000FDCF8EB508958CBD9DBD08951F93CF93B4
:100C4000DF93EC01162F8A899B890E941B0660E0C6
:100C50008E850E942305812F80680E94140680E003
:100C60000E941406182F61E08E850E942305812FB3
:100C7000DF91CF911F910895EF92FF921F93CF9331
:100C8000DF931F92CDB7DEB77C01162FFC0182895E
:100C9000938949830E941B0660E0F70186850E94C4
:100CA0002305812F0E9414064981842F0E94140677
:100CB00061E0F70186850F90DF91CF911F91FF9042
:100CC000EF900C9423058F929F92AF92CF92EF9268
:100CD000FF920F931F93CF93DF9300D000D01F920A
:100CE000CDB7DEB74C0182E08D8340E064E2C40101
:100CF0000E943C0640E066E2C4010E943C0646E2D7
:100D000068E4C4010E943C0686E28C838D818230B7
:100D100040F16CE1C4010E941E06482F4F776CE140
:100D2000C4010E943C0687E08B83A12CC12CCE011C
:100D300003967C018E010B5F1F4F9E012F5F3F4F7B
:100D400041E0BE016C5F7F4FC4010E94E50281114A
:100D50000BC08D81823039F481E09B81911104C0F8
:100D600008C084E001C081E091E0823019F090E099
:100D700001C091E0892F0F900F900F900F900F906E
:100D8000DF91CF911F910F91FF90EF90CF90AF9097
:100D90009F908F900895CF92DF92EF92FF920F93E2
:100DA0001F93CF93DF93EC016B01142F790140E087
:100DB00062E00E943C0644E06AE0CE010E943C06EC
:100DC00040E864E1CE010E943C06A601612FCE01FD
:100DD0000E94A90243E062E0CE010E943C0608E8BE
:100DE00013E16AE0CE010E941E0682FF13C040E0BC
:100DF00062E0CE010E943C0664E4CE010E941E0621
:100E0000F701808362E4CE010E941E06F701818310
:100E100080E004C00150110921F783E0DF91CF91F8
:100E20001F910F91FF90EF90DF90CF9008952F9238
:100E30003F924F925F926F927F928F929F92AF926A
:100E4000BF92CF92DF92EF92FF920F931F93CF93B7
:100E5000DF93CDB7DEB72D970FB6F894DEBF0FBE88
:100E6000CDBF413508F00EC1342E3B014C016CE181
:100E70000E941E06482F4F776CE1C4010E943C0679
:100E8000BB24B39442E0B41691F083E0B816E1F0CD
:100E900091E0B912FBC083E989833320D1F081E06E
:100EA000F3019081953008F480E0D12C17C085E9DA
:100EB0008983332081F081E0F3019081983008F438
:100EC00080E0A3E0DA2E0AC087E98983F6E0DF2E0E
:100ED00004C0D12C02C0E3E0DE2E80E0532DF8EFF9
:100EE000DF9E500D112457FD50E0882321F098E833
:100EF0009B8343E001C042E021E0952F977009F405
:100F000020E0952F959595959595290F21F48823A7
:100F100011F1585F20C0811102C094E001C093E03C
:100F2000291708F4922F20E030E06D2D70E0E42FB7
:100F3000E20FA1E0B0E0AC0FBD1FAE0FB11DF90193
:100F4000E60FF71FE60DF71DE181EC932F5F3F4F92
:100F5000291768F3DCCF73E0272E5032FCF040E70E
:100F60004A839C818B8189279D8189279E8189273E
:100F70008F839E01285F3F4F47E0BE016F5F7F4F29
:100F8000C4015D870E94CB065D858111CBC01B86A5
:100F90002A86CE0107962C0179E01EC0952F977006
:100FA0009B87252F25952595259582E0820F392F42
:100FB000E0E18E9F300D11243A8371E0911101C060
:100FC00070E0780F44244394512C4C0E5D1E480E63
:100FD000511C87E0821B8A87CB844C2D4295407F31
:100FE0004C0D6AE1C4015D877C870E943C06A12C00
:100FF000CE010B967C018E01065F1F4F92017C850E
:10100000472FBE016F5F7F4FC4010E94E5025D85DF
:10101000823091F56CE1C4010E941E065D8585FD5C
:1010200033C08F7109F480E290E0252F052E000C6B
:10103000330B2817390754F501979C012770332784
:1010400043E0959587954A95E1F78F5F91E02115EB
:10105000310509F490E0890FE1E0F0E0EC0FFD1FAD
:10106000E80FF11D81E090E001C0880F2A95EAF7B2
:101070009081892B808371CF811154C0503244F408
:1010800050E26DCF86E04EC082E04CC085E04AC0A1
:101090008B81883809F043C033E023E080E090E0A2
:1010A0006D2D70E0FC01E60FF71FE60DF71D432FD5
:1010B000480FA1E0B0E0AC0FBD1FA40FB11D4C91D3
:1010C00041830196821770F38A85833021F58B85E1
:1010D000811121C09E012D5F3F4F41E0B201C4014B
:1010E0000E94CB0681111EC09B81F2018181981361
:1010F00014C09C818281981310C0808182FF02C03D
:10110000B394C0CEF30183878B2D880FB80EB394B0
:10111000B08280E007C081E005C087E003C032E014
:1011200024E0BCCF2D960FB6F894DEBF0FBECDBF26
:10113000DF91CF911F910F91FF90EF90DF90CF90B3
:10114000BF90AF909F908F907F906F905F904F90E7
:101150003F902F9008952F923F924F925F926F92FF
:101160007F928F929F92AF92BF92CF92DF92EF9237
:10117000FF920F931F93CF93DF93CDB7DEB72C97DA
:101180000FB6F894DEBF0FBECDBF9C878B87DC0106
:1011900013968C91139712964C901297512C612CA8
:1011A000712C320155244424782A8C91482A1196B6
:1011B0008C91582A8EE392E00E94C904460E571E75
:1011C000681E791EEB85FC858781C680D12CE12CB9
:1011D000F12C7601DD24CC24F82A8481C82A85816B
:1011E000D82A82E492E00E94C904C60ED71EE81EE7
:1011F000F91E1A8619864C245D246E247F24F6017C
:10120000EF71FF2700E210E00E1B1F0B9201A301FC
:1012100060E070E080E090E00E94D30D29833A8383
:101220004B835C839201A30160E070E080E090E07A
:101230000E2F0E94B80D19012A0189809A80AB8077
:10124000BC8082289328A428B52889859A858A5B42
:101250009D4F0E94C90424013501460E571E681E89
:10126000791EC424D524E624F72446015701F2014F
:10127000EF71FF2700E210E00E1B1F0B9601A50186
:1012800060E070E080E090E00E94D30D29833A8313
:101290004B835C839601A50160E070E080E090E004
:1012A0000E2F0E94B80D49015A0189819A81AB81A4
:1012B000BC81882A992AAA2ABB2A89859A85865BB5
:1012C0009D4F0E94C90475016401C60ED71EE81E19
:1012D000F91ED701C60184259525A625B7251C0131
:1012E0002D01F601EF71FF2700E210E00E1B1F0B2E
:1012F0009C01A20160E070E080E090E00E94D30DCC
:1013000029833A834B835C839101A20160E070E002
:1013100080E090E00E2F0E94B80D29013A018981EA
:101320009A81AB81BC81482A592A6A2A7B2A29845E
:101330003A8490E1290E311CC101825C9D4F0E94CC
:10134000C904460E571E681E791EC424D524E624FF
:10135000F72446015701F201EF71FF2700E210E088
:101360000E1B1F0B9601A50160E070E080E090E08D
:101370000E94D30D29833A834B835C839601A50198
:1013800060E070E080E090E00E2F0E94B80D49010F
:101390005A0189819A81AB81BC81882A992AAA2A1B
:1013A000BB2A89859A858E5A9D4F0E94C904750172
:1013B0006401C60ED71EE81EF91E3A862986D101A1
:1013C000A036B10509F017CFEB85FC85408251822C
:1013D00062827382C482D582E682F7822C960FB62F
:1013E000F894DEBF0FBECDBFDF91CF911F910F915B
:1013F000FF90EF90DF90CF90BF90AF909F908F9035
:101400007F906F905F904F903F902F900895AF9294
:10141000BF92CF92DF92EF92FF920F931F93CF93E1
:10142000DF9300D01F92CDB7DEB71B828C017C0109
:10143000E60EF71E8FE1C82E81E0D82ECE01019670
:101440005C010E151F05A9F0F80181918F011F9213
:101450008F93DF92CF92BF92AF920E94070EC50189
:101460000E9448020F900F900F900F900F900F90D6
:10147000E8CF8CE191E00E9448020F900F900F900E
:10148000DF91CF911F910F91FF90EF90DF90CF9060
:10149000BF90AF900895E4E2F1E01382128288EEEB
:1014A00093E0A0E0B0E084839583A683B78384E0D3
:1014B00091E09183808385EC90E09587848784EC2C
:1014C00090E09787868780EC90E0918B808B81EC11
:1014D00090E0938B828B82EC90E0958B848B86ECF2
:1014E00090E0978B868B118E128E138E148EE4EC07
:1014F000F1E086E191E0918380838AE0868789E04C
:10150000878783EC91E0918B808B83E5828B138AB4
:101510000895CF93DF93CDB7DEB76C970FB6F894ED
:10152000DEBF0FBECDBF789484B5826084BD84B524
:10153000816084BD85B5826085BD85B5816085BDCE
:1015400080916E00816080936E0010928100809186
:10155000810082608093810080918100816080930E
:101560008100809180008160809380008091B10033
:1015700084608093B1008091B00081608093B0005E
:1015800080917A00846080937A0080917A008260F2
:1015900080937A0080917A00816080937A008091B4
:1015A0007A00806880937A001092C100E091340143
:1015B000F091350182E08083E0913001F0913101BA
:1015C0001082E0913201F091330180E1808310922A
:1015D0003C01E0913801F091390186E08083E0918F
:1015E0003601F0913701808180618083E09136017E
:1015F000F0913701808188608083E0913601F0911D
:101600003701808180688083E0913601F091370155
:1016100080818F7D80831FB7F8948091C1018111F3
:1016200027C0E6E8F0E08491EAE9F0E09491E82F41
:10163000F0E0EE0FFF1FE859FF4FA591B491EC9138
:10164000E92321F461E08AE00E94230561E08AE059
:101650000E9453058CB580618CBD8CB580648CBDB7
:1016600061E08DE00E94530561E08BE00E9453052C
:101670008091C1018F5F8093C1011FBF61E08091A4
:10168000D2010E94530561E08091D2010E9423059E
:101690008091D3018F3F69F44FE062E084EC91E0E8
:1016A0000E943C0662E370E080E090E00E948F05BB
:1016B00025C060E00E9453052091D30130E0F9017C
:1016C000EC55FF4F8491F901E057FF4F0491F90168
:1016D000E458FF4F1491112309F40EC281110E94A6
:1016E000FA04E12FF0E0EE0FFF1FEE58FF4FA59137
:1016F000B491EC91E02309F4FFC1CECF62E084EC19
:1017000091E00E941E0684FDF9CF40E064E284EC83
:1017100091E00E943C0640E066E284EC91E00E9489
:101720003C0646E268E484EC91E00E943C0640E816
:1017300064E584EC91E00E943C0649EA66E584ECAD
:1017400091E00E943C0643E068E584EC91E00E9451
:101750003C0648EE6AE584EC91E00E943C0640E4D9
:101760006AE284EC91E00E943C064DE362E284EC84
:1017700091E00E943C0668E284EC91E00E941E0623
:10178000982F9370933039F0482F436068E284ECCF
:1017900091E00E943C0685E192E00E945A0284ECAE
:1017A00091E00E9463068823D1F384EC91E00E94CB
:1017B000BB048823A1F39091CA018091C801890FCD
:1017C0009091CC01890F8770FE0131964F0198E00E
:1017D00011929A95E9F720E030E090E08401F90158
:1017E000E80FF91FE770FF27E00FF11FD901AC5395
:1017F000BE4F13964C9140832F5F3F4F27303105EA
:1018000071F7C8010E94AB082B818981280F8D8157
:10181000280F9F81290F237030E0FE01E20FF31F94
:1018200084818B8BE3E0F0E0EC0FFD1FE20FF31FF0
:1018300080818C8BFE01E20FF31F82818D8BF8017A
:10184000E20FF31F80818E8B61E070E080E090E01A
:101850000E948F059091CC018091C901890F8770FA
:1018600098E0F80111929A95E9F720E030E090E0D5
:10187000F901E80FF91FE770FF27E80DF91DD901FD
:10188000AC53BE4F13964C9140832F5F3F4F273090
:10189000310571F7C4010E94AB08F4019E01275F76
:1018A0003F4F80E090E041915DE0459F800D911DAC
:1018B0001124E217F307B9F7E5E58E279E278F8BF2
:1018C000988F61E070E080E090E00E948F0580E1F9
:1018D00092E00E94830167E070E087EC91E00E9453
:1018E000070A8BE092E00E94830164E070E0CE0181
:1018F00043960E94070A85E092E00E94830162E01D
:1019000070E0CE0147960E94070A8BE189838B899C
:101910008A838C898B838D898C838E898D839E01AC
:101920002A5F3F4F45E0B40184EC91E00E94CB0672
:10193000811117C01C8E85E08B8FA12CC12C9E01BC
:10194000245E3F4F79018E01055E1F4F940147E0F1
:10195000B40184EC91E00E94E5029981998F9A810B
:101960009A8F182F62E070E0CE0149960E94070A14
:101970001111B5C042E050E0BE01675E7F4FCE015D
:1019800047960E94FA0D892B09F0A9C088EE91E0D4
:101990000E945A028AEC91E00E945A02D12C82E104
:1019A000B82E90E3792EBB8E7982DA829E012D5F6C
:1019B0003F4F42E0B40184EC91E00E94CB068111DC
:1019C00013C0AA24A394C12CE12CF12C8E01055E36
:1019D0001F4F940144E0B40184EC91E00E94E502C1
:1019E000182F882399F101C0182F83EB91E00E94F2
:1019F00083011430B9F030F4123071F080F41130FA
:101A000001F11CC01630A1F080F01730A1F01F3F8B
:101A1000A9F486EC90E017C089E791E014C08FE547
:101A200091E011C083E491E00EC084E191E00BC02D
:101A300082E091E008C088EE90E005C088EB90E07D
:101A400002C08EE891E00E945A0245C0E12C1E2D92
:101A50001D0D1A3018F480EB91E002C08EEA91E07F
:101A60000E948301612F70E080E090E04AE00E94D4
:101A700068028BEA91E00E948301CE2CCC0CCC0C46
:101A8000F12C0F2D0C0D10E0F401E00FF11F8081FF
:101A9000803118F488EA91E002C086EA91E00E9461
:101AA0008301F401E00FF11F608170E080E090E0BD
:101AB00040E10E946802F39434E0F312E2CF8CE13B
:101AC00091E00E944802E39454E0E512C0CFD50EA5
:101AD00080E1D81268CF81E08093C20104C08BED11
:101AE00091E00E945A0260EA7FE080E090E00E946C
:101AF0008F050E948C04FDCF61E08091D3010E948C
:101B0000530561E08091D3010E94230562E370E0F8
:101B100080E090E00E948F05F8CDFB01DC0102C05F
:101B200005900D9241505040D8F70895A1E21A2E29
:101B3000AA1BBB1BFD010DC0AA1FBB1FEE1FFF1F71
:101B4000A217B307E407F50720F0A21BB30BE40BC1
:101B5000F50B661F771F881F991F1A9469F7609508
:101B60007095809590959B01AC01BD01CF010895C2
:101B70000F93083090F0982F872F762F652F542FD2
:101B8000432F322F22270850F4CF220F331F441F38
:101B9000551F661F771F881F991F0A95B2F70F916F
:101BA000089597FB10F8169400080F93083098F0EA
:101BB0000850232F342F452F562F672F782F892F2A
:101BC000902DF4CF059497958795779567955795C0
:101BD0004795379527950A95AAF70F910895EE0F27
:101BE000FF1F0590F491E02D099481E090E0F894B6
:101BF0000C94DF10FB01DC0104C08D910190801971
:101C000021F441505040C8F7881B990B0895AEE06D
:101C1000B0E0EDE0FEE00C94B6100D891E8986E080
:101C20008C831A8309838FEF9FE79E838D83AE0198
:101C3000475E5F4F6F89788DCE0101960E942A0E14
:101C40002F813885F801E20FF31F10822E96E4E011
:101C50000C94D210ACE0B0E0E0E3FEE00C94A810ED
:101C60007C016B018A01FC0117821682838181FF4E
:101C7000BDC1CE0101964C01F7019381F60193FDA0
:101C8000859193FF81916F01882309F4ABC185325F
:101C900039F493FD859193FF81916F01853229F489
:101CA000B70190E00E941210E7CF512C312C20E0B8
:101CB0002032A0F48B3269F030F4803259F0833254
:101CC00069F420612CC08D3239F0803339F4216001
:101CD00026C02260246023C0286021C027FD27C0C1
:101CE00030ED380F3A3078F426FF06C0FAE05F9EF8
:101CF000300D1124532E13C08AE0389E300D11246C
:101D0000332E20620CC08E3221F426FD6BC120647C
:101D100006C08C3611F4206802C0883641F4F60102
:101D200093FD859193FF81916F018111C1CF982F10
:101D30009F7D9554933028F40C5F1F4FFFE3F98388
:101D40000DC0833631F0833771F0833509F05BC005
:101D500022C0F801808189830E5F1F4F4424439481
:101D6000512C540115C03801F2E06F0E711CF801BE
:101D7000A080B18026FF03C0652D70E002C06FEF28
:101D80007FEFC5012C870E9407102C0183012C8551
:101D90002F77222E17C03801F2E06F0E711CF80168
:101DA000A080B18026FF03C0652D70E002C06FEFF8
:101DB0007FEFC5012C870E94FC0F2C012C85206829
:101DC000222E830123FC1BC0832D90E04816590668
:101DD000B0F4B70180E290E00E9412103A94F4CF80
:101DE000F50127FC859127FE81915F01B70190E005
:101DF0000E94121031103A94F1E04F1A5108411428
:101E0000510471F7E5C0843611F0893639F5F801CF
:101E100027FF07C060817181828193810C5F1F4F12
:101E200008C060817181072E000C880B990B0E5F32
:101E30001F4F2F76722E97FF09C090958095709551
:101E400061957F4F8F4F9F4F2068722E2AE030E0C0
:101E5000A4010E944A10A82EA81844C0853729F46E
:101E60002F7EB22E2AE030E025C0F22FF97FBF2E60
:101E70008F36C1F018F4883579F0B4C0803719F086
:101E8000883721F0AFC02F2F2061B22EB4FE0DC0D5
:101E90008B2D8460B82E09C024FF0AC09F2F966046
:101EA000B92E06C028E030E005C020E130E002C0D5
:101EB00020E132E0F801B7FE07C0608171818281C4
:101EC00093810C5F1F4F06C06081718180E090E0BC
:101ED0000E5F1F4FA4010E944A10A82EA818FB2DC8
:101EE000FF777F2E76FE0BC0372D3E7FA51450F472
:101EF00074FE0AC072FC08C0372D3E7E05C0BA2CA5
:101F0000372D03C0BA2C01C0B52C34FF0DC0FE0123
:101F1000EA0DF11D8081803311F4397E09C032FF52
:101F200006C0B394B39404C0832F867809F0B394A9
:101F300033FD13C030FF06C05A2CB31418F4530CF1
:101F40005B18B32CB31468F4B70180E290E03C87CF
:101F50000E941210B3943C85F5CFB31410F43B18D3
:101F600001C0312C34FF12C0B70180E390E03C8700
:101F70000E9412103C8532FF17C031FD03C088E774
:101F800090E002C088E590E0B7010CC0832F86780E
:101F900059F031FF02C08BE201C080E237FD8DE2D3
:101FA000B70190E00E941210A51438F4B70180E345
:101FB00090E00E9412105A94F7CFAA94F401EA0D0F
:101FC000F11D8081B70190E00E941210A110F5CFA1
:101FD000332009F451CEB70180E290E00E94121044
:101FE0003A94F6CFF7018681978102C08FEF9FEF79
:101FF0002C96E2E10C94C410FC01059061507040F5
:102000000110D8F7809590958E0F9F1F0895FC01C1
:102010006150704001900110D8F7809590958E0F17
:102020009F1F08950F931F93CF93DF93FB0123818D
:1020300021FD03C08FEF9FEF28C022FF16C046810D
:102040005781248135814217530744F4A081B1811F
:102050009D012F5F3F4F318320838C9326813781F1
:102060002F5F3F4F3783268310C0EB01092F182FB6
:102070000084F185E02D0995892BE1F68E819F8101
:1020800001969F838E83812F902FDF91CF911F9197
:102090000F910895FA01AA27283051F1203181F1DA
:1020A000E8946F936E7F6E5F7F4F8F4F9F4FAF4F60
:1020B000B1E03ED0B4E03CD0670F781F891F9A1F73
:1020C000A11D680F791F8A1F911DA11D6A0F711D27
:1020D000811D911DA11D20D009F468943F912AE033
:1020E000269F11243019305D3193DEF6CF0108951B
:1020F000462F4770405D4193B3E00FD0C9F7F6CF4C
:10210000462F4F70405D4A3318F0495D31FD405213
:10211000419302D0A9F7EACFB4E0A69597958795A9
:1021200077956795BA95C9F7009761057105089588
:102130009B01AC010A2E0694579547953795279534
:10214000BA95C9F7620F731F841F951FA01D0895CC
:102150002F923F924F925F926F927F928F929F92B7
:10216000AF92BF92CF92DF92EF92FF920F931F93A5
:10217000CF93DF93CDB7DEB7CA1BDB0B0FB6F89456
:10218000DEBF0FBECDBF09942A88398848885F8496
:102190006E847D848C849B84AA84B984C884DF8007
:1021A000EE80FD800C811B81AA81B981CE0FD11DEB
:1021B0000FB6F894DEBF0FBECDBFED010895F894C1
:0221C000FFCF4F
:1021C20000000000DF01A4014F04260280045E0427
:1021D20072040000000017076306BB040D0A002505
:0421E200303258003F
:00000001FF
